{
	"Object Oriented Concepts/Call.sol": {
		"TestCall": {
			"abi": [
				{
					"anonymous": false,
					"inputs": [
						{
							"indexed": false,
							"internalType": "string",
							"name": "message",
							"type": "string"
						}
					],
					"name": "Log",
					"type": "event"
				},
				{
					"stateMutability": "payable",
					"type": "fallback"
				},
				{
					"inputs": [
						{
							"internalType": "string",
							"name": "_message",
							"type": "string"
						},
						{
							"internalType": "uint256",
							"name": "_x",
							"type": "uint256"
						}
					],
					"name": "foo",
					"outputs": [
						{
							"internalType": "bool",
							"name": "",
							"type": "bool"
						},
						{
							"internalType": "uint256",
							"name": "",
							"type": "uint256"
						}
					],
					"stateMutability": "payable",
					"type": "function"
				},
				{
					"inputs": [],
					"name": "message",
					"outputs": [
						{
							"internalType": "string",
							"name": "",
							"type": "string"
						}
					],
					"stateMutability": "view",
					"type": "function"
				},
				{
					"inputs": [],
					"name": "x",
					"outputs": [
						{
							"internalType": "uint256",
							"name": "",
							"type": "uint256"
						}
					],
					"stateMutability": "view",
					"type": "function"
				}
			],
			"devdoc": {
				"kind": "dev",
				"methods": {},
				"version": 1
			},
			"evm": {
				"assembly": "    /* \"Object Oriented Concepts/Call.sol\":60:423  contract TestCall {\r... */\n  mstore(0x40, 0x80)\n  callvalue\n  dup1\n  iszero\n  tag_1\n  jumpi\n  0x00\n  dup1\n  revert\ntag_1:\n  pop\n  dataSize(sub_0)\n  dup1\n  dataOffset(sub_0)\n  0x00\n  codecopy\n  0x00\n  return\nstop\n\nsub_0: assembly {\n        /* \"Object Oriented Concepts/Call.sol\":60:423  contract TestCall {\r... */\n      mstore(0x40, 0x80)\n      jumpi(tag_1, lt(calldatasize, 0x04))\n      shr(0xe0, calldataload(0x00))\n      dup1\n      0x0c55699c\n      eq\n      tag_3\n      jumpi\n      dup1\n      0x24ccab8f\n      eq\n      tag_4\n      jumpi\n      dup1\n      0xe21f37ce\n      eq\n      tag_5\n      jumpi\n      jump(tag_2)\n    tag_1:\n    tag_2:\n        /* \"Object Oriented Concepts/Call.sol\":213:240  Log(\"fall back was called\") */\n      0xcf34ef537ac33ee1ac626ca1587a0a7e8e51561e5514f8cb36afa1c5102b3bab\n      mload(0x40)\n      tag_8\n      swap1\n      tag_9\n      jump\t// in\n    tag_8:\n      mload(0x40)\n      dup1\n      swap2\n      sub\n      swap1\n      log1\n        /* \"Object Oriented Concepts/Call.sol\":60:423  contract TestCall {\r... */\n      stop\n        /* \"Object Oriented Concepts/Call.sol\":113:126  uint public x */\n    tag_3:\n      callvalue\n      dup1\n      iszero\n      tag_10\n      jumpi\n      0x00\n      dup1\n      revert\n    tag_10:\n      pop\n      tag_11\n      tag_12\n      jump\t// in\n    tag_11:\n      mload(0x40)\n      tag_13\n      swap2\n      swap1\n      tag_14\n      jump\t// in\n    tag_13:\n      mload(0x40)\n      dup1\n      swap2\n      sub\n      swap1\n      return\n        /* \"Object Oriented Concepts/Call.sol\":256:420  function foo (string memory _message, uint _x) external payable returns (bool, uint){\r... */\n    tag_4:\n      tag_15\n      0x04\n      dup1\n      calldatasize\n      sub\n      dup2\n      add\n      swap1\n      tag_16\n      swap2\n      swap1\n      tag_17\n      jump\t// in\n    tag_16:\n      tag_18\n      jump\t// in\n    tag_15:\n      mload(0x40)\n      tag_19\n      swap3\n      swap2\n      swap1\n      tag_20\n      jump\t// in\n    tag_19:\n      mload(0x40)\n      dup1\n      swap2\n      sub\n      swap1\n      return\n        /* \"Object Oriented Concepts/Call.sol\":85:106  string public message */\n    tag_5:\n      callvalue\n      dup1\n      iszero\n      tag_21\n      jumpi\n      0x00\n      dup1\n      revert\n    tag_21:\n      pop\n      tag_22\n      tag_23\n      jump\t// in\n    tag_22:\n      mload(0x40)\n      tag_24\n      swap2\n      swap1\n      tag_25\n      jump\t// in\n    tag_24:\n      mload(0x40)\n      dup1\n      swap2\n      sub\n      swap1\n      return\n        /* \"Object Oriented Concepts/Call.sol\":113:126  uint public x */\n    tag_12:\n      sload(0x01)\n      dup2\n      jump\t// out\n        /* \"Object Oriented Concepts/Call.sol\":256:420  function foo (string memory _message, uint _x) external payable returns (bool, uint){\r... */\n    tag_18:\n        /* \"Object Oriented Concepts/Call.sol\":329:333  bool */\n      0x00\n        /* \"Object Oriented Concepts/Call.sol\":335:339  uint */\n      dup1\n        /* \"Object Oriented Concepts/Call.sol\":359:367  _message */\n      dup4\n        /* \"Object Oriented Concepts/Call.sol\":351:358  message */\n      0x00\n        /* \"Object Oriented Concepts/Call.sol\":351:367  message=_message */\n      swap1\n      dup1\n      mload\n      swap1\n      0x20\n      add\n      swap1\n      tag_27\n      swap3\n      swap2\n      swap1\n      tag_28\n      jump\t// in\n    tag_27:\n      pop\n        /* \"Object Oriented Concepts/Call.sol\":381:383  _x */\n      dup3\n        /* \"Object Oriented Concepts/Call.sol\":378:379  x */\n      0x01\n        /* \"Object Oriented Concepts/Call.sol\":378:383  x= _x */\n      dup2\n      swap1\n      sstore\n      pop\n        /* \"Object Oriented Concepts/Call.sol\":402:406  true */\n      0x01\n        /* \"Object Oriented Concepts/Call.sol\":408:411  999 */\n      0x03e7\n        /* \"Object Oriented Concepts/Call.sol\":394:412  return (true, 999) */\n      swap2\n      pop\n      swap2\n      pop\n        /* \"Object Oriented Concepts/Call.sol\":256:420  function foo (string memory _message, uint _x) external payable returns (bool, uint){\r... */\n      swap3\n      pop\n      swap3\n      swap1\n      pop\n      jump\t// out\n        /* \"Object Oriented Concepts/Call.sol\":85:106  string public message */\n    tag_23:\n      0x00\n      dup1\n      sload\n      tag_29\n      swap1\n      tag_30\n      jump\t// in\n    tag_29:\n      dup1\n      0x1f\n      add\n      0x20\n      dup1\n      swap2\n      div\n      mul\n      0x20\n      add\n      mload(0x40)\n      swap1\n      dup2\n      add\n      0x40\n      mstore\n      dup1\n      swap3\n      swap2\n      swap1\n      dup2\n      dup2\n      mstore\n      0x20\n      add\n      dup3\n      dup1\n      sload\n      tag_31\n      swap1\n      tag_30\n      jump\t// in\n    tag_31:\n      dup1\n      iszero\n      tag_32\n      jumpi\n      dup1\n      0x1f\n      lt\n      tag_33\n      jumpi\n      0x0100\n      dup1\n      dup4\n      sload\n      div\n      mul\n      dup4\n      mstore\n      swap2\n      0x20\n      add\n      swap2\n      jump(tag_32)\n    tag_33:\n      dup3\n      add\n      swap2\n      swap1\n      0x00\n      mstore\n      keccak256(0x00, 0x20)\n      swap1\n    tag_34:\n      dup2\n      sload\n      dup2\n      mstore\n      swap1\n      0x01\n      add\n      swap1\n      0x20\n      add\n      dup1\n      dup4\n      gt\n      tag_34\n      jumpi\n      dup3\n      swap1\n      sub\n      0x1f\n      and\n      dup3\n      add\n      swap2\n    tag_32:\n      pop\n      pop\n      pop\n      pop\n      pop\n      dup2\n      jump\t// out\n    tag_28:\n      dup3\n      dup1\n      sload\n      tag_35\n      swap1\n      tag_30\n      jump\t// in\n    tag_35:\n      swap1\n      0x00\n      mstore\n      keccak256(0x00, 0x20)\n      swap1\n      0x1f\n      add\n      0x20\n      swap1\n      div\n      dup2\n      add\n      swap3\n      dup3\n      tag_37\n      jumpi\n      0x00\n      dup6\n      sstore\n      jump(tag_36)\n    tag_37:\n      dup3\n      0x1f\n      lt\n      tag_38\n      jumpi\n      dup1\n      mload\n      not(0xff)\n      and\n      dup4\n      dup1\n      add\n      or\n      dup6\n      sstore\n      jump(tag_36)\n    tag_38:\n      dup3\n      dup1\n      add\n      0x01\n      add\n      dup6\n      sstore\n      dup3\n      iszero\n      tag_36\n      jumpi\n      swap2\n      dup3\n      add\n    tag_39:\n      dup3\n      dup2\n      gt\n      iszero\n      tag_40\n      jumpi\n      dup3\n      mload\n      dup3\n      sstore\n      swap2\n      0x20\n      add\n      swap2\n      swap1\n      0x01\n      add\n      swap1\n      jump(tag_39)\n    tag_40:\n    tag_36:\n      pop\n      swap1\n      pop\n      tag_41\n      swap2\n      swap1\n      tag_42\n      jump\t// in\n    tag_41:\n      pop\n      swap1\n      jump\t// out\n    tag_42:\n    tag_43:\n      dup1\n      dup3\n      gt\n      iszero\n      tag_44\n      jumpi\n      0x00\n      dup2\n      0x00\n      swap1\n      sstore\n      pop\n      0x01\n      add\n      jump(tag_43)\n    tag_44:\n      pop\n      swap1\n      jump\t// out\n        /* \"#utility.yul\":7:419   */\n    tag_46:\n        /* \"#utility.yul\":85:90   */\n      0x00\n        /* \"#utility.yul\":110:176   */\n      tag_48\n        /* \"#utility.yul\":126:175   */\n      tag_49\n        /* \"#utility.yul\":168:174   */\n      dup5\n        /* \"#utility.yul\":126:175   */\n      tag_50\n      jump\t// in\n    tag_49:\n        /* \"#utility.yul\":110:176   */\n      tag_51\n      jump\t// in\n    tag_48:\n        /* \"#utility.yul\":101:176   */\n      swap1\n      pop\n        /* \"#utility.yul\":199:205   */\n      dup3\n        /* \"#utility.yul\":192:197   */\n      dup2\n        /* \"#utility.yul\":185:206   */\n      mstore\n        /* \"#utility.yul\":237:241   */\n      0x20\n        /* \"#utility.yul\":230:235   */\n      dup2\n        /* \"#utility.yul\":226:242   */\n      add\n        /* \"#utility.yul\":275:278   */\n      dup5\n        /* \"#utility.yul\":266:272   */\n      dup5\n        /* \"#utility.yul\":261:264   */\n      dup5\n        /* \"#utility.yul\":257:273   */\n      add\n        /* \"#utility.yul\":254:279   */\n      gt\n        /* \"#utility.yul\":251:363   */\n      iszero\n      tag_52\n      jumpi\n        /* \"#utility.yul\":282:361   */\n      tag_53\n      tag_54\n      jump\t// in\n    tag_53:\n        /* \"#utility.yul\":251:363   */\n    tag_52:\n        /* \"#utility.yul\":372:413   */\n      tag_55\n        /* \"#utility.yul\":406:412   */\n      dup5\n        /* \"#utility.yul\":401:404   */\n      dup3\n        /* \"#utility.yul\":396:399   */\n      dup6\n        /* \"#utility.yul\":372:413   */\n      tag_56\n      jump\t// in\n    tag_55:\n        /* \"#utility.yul\":91:419   */\n      pop\n        /* \"#utility.yul\":7:419   */\n      swap4\n      swap3\n      pop\n      pop\n      pop\n      jump\t// out\n        /* \"#utility.yul\":439:779   */\n    tag_57:\n        /* \"#utility.yul\":495:500   */\n      0x00\n        /* \"#utility.yul\":544:547   */\n      dup3\n        /* \"#utility.yul\":537:541   */\n      0x1f\n        /* \"#utility.yul\":529:535   */\n      dup4\n        /* \"#utility.yul\":525:542   */\n      add\n        /* \"#utility.yul\":521:548   */\n      slt\n        /* \"#utility.yul\":511:633   */\n      tag_59\n      jumpi\n        /* \"#utility.yul\":552:631   */\n      tag_60\n      tag_61\n      jump\t// in\n    tag_60:\n        /* \"#utility.yul\":511:633   */\n    tag_59:\n        /* \"#utility.yul\":669:675   */\n      dup2\n        /* \"#utility.yul\":656:676   */\n      calldataload\n        /* \"#utility.yul\":694:773   */\n      tag_62\n        /* \"#utility.yul\":769:772   */\n      dup5\n        /* \"#utility.yul\":761:767   */\n      dup3\n        /* \"#utility.yul\":754:758   */\n      0x20\n        /* \"#utility.yul\":746:752   */\n      dup7\n        /* \"#utility.yul\":742:759   */\n      add\n        /* \"#utility.yul\":694:773   */\n      tag_46\n      jump\t// in\n    tag_62:\n        /* \"#utility.yul\":685:773   */\n      swap2\n      pop\n        /* \"#utility.yul\":501:779   */\n      pop\n        /* \"#utility.yul\":439:779   */\n      swap3\n      swap2\n      pop\n      pop\n      jump\t// out\n        /* \"#utility.yul\":785:924   */\n    tag_63:\n        /* \"#utility.yul\":831:836   */\n      0x00\n        /* \"#utility.yul\":869:875   */\n      dup2\n        /* \"#utility.yul\":856:876   */\n      calldataload\n        /* \"#utility.yul\":847:876   */\n      swap1\n      pop\n        /* \"#utility.yul\":885:918   */\n      tag_65\n        /* \"#utility.yul\":912:917   */\n      dup2\n        /* \"#utility.yul\":885:918   */\n      tag_66\n      jump\t// in\n    tag_65:\n        /* \"#utility.yul\":785:924   */\n      swap3\n      swap2\n      pop\n      pop\n      jump\t// out\n        /* \"#utility.yul\":930:1584   */\n    tag_17:\n        /* \"#utility.yul\":1008:1014   */\n      0x00\n        /* \"#utility.yul\":1016:1022   */\n      dup1\n        /* \"#utility.yul\":1065:1067   */\n      0x40\n        /* \"#utility.yul\":1053:1062   */\n      dup4\n        /* \"#utility.yul\":1044:1051   */\n      dup6\n        /* \"#utility.yul\":1040:1063   */\n      sub\n        /* \"#utility.yul\":1036:1068   */\n      slt\n        /* \"#utility.yul\":1033:1152   */\n      iszero\n      tag_68\n      jumpi\n        /* \"#utility.yul\":1071:1150   */\n      tag_69\n      tag_70\n      jump\t// in\n    tag_69:\n        /* \"#utility.yul\":1033:1152   */\n    tag_68:\n        /* \"#utility.yul\":1219:1220   */\n      0x00\n        /* \"#utility.yul\":1208:1217   */\n      dup4\n        /* \"#utility.yul\":1204:1221   */\n      add\n        /* \"#utility.yul\":1191:1222   */\n      calldataload\n        /* \"#utility.yul\":1249:1267   */\n      0xffffffffffffffff\n        /* \"#utility.yul\":1241:1247   */\n      dup2\n        /* \"#utility.yul\":1238:1268   */\n      gt\n        /* \"#utility.yul\":1235:1352   */\n      iszero\n      tag_71\n      jumpi\n        /* \"#utility.yul\":1271:1350   */\n      tag_72\n      tag_73\n      jump\t// in\n    tag_72:\n        /* \"#utility.yul\":1235:1352   */\n    tag_71:\n        /* \"#utility.yul\":1376:1439   */\n      tag_74\n        /* \"#utility.yul\":1431:1438   */\n      dup6\n        /* \"#utility.yul\":1422:1428   */\n      dup3\n        /* \"#utility.yul\":1411:1420   */\n      dup7\n        /* \"#utility.yul\":1407:1429   */\n      add\n        /* \"#utility.yul\":1376:1439   */\n      tag_57\n      jump\t// in\n    tag_74:\n        /* \"#utility.yul\":1366:1439   */\n      swap3\n      pop\n        /* \"#utility.yul\":1162:1449   */\n      pop\n        /* \"#utility.yul\":1488:1490   */\n      0x20\n        /* \"#utility.yul\":1514:1567   */\n      tag_75\n        /* \"#utility.yul\":1559:1566   */\n      dup6\n        /* \"#utility.yul\":1550:1556   */\n      dup3\n        /* \"#utility.yul\":1539:1548   */\n      dup7\n        /* \"#utility.yul\":1535:1557   */\n      add\n        /* \"#utility.yul\":1514:1567   */\n      tag_63\n      jump\t// in\n    tag_75:\n        /* \"#utility.yul\":1504:1567   */\n      swap2\n      pop\n        /* \"#utility.yul\":1459:1577   */\n      pop\n        /* \"#utility.yul\":930:1584   */\n      swap3\n      pop\n      swap3\n      swap1\n      pop\n      jump\t// out\n        /* \"#utility.yul\":1590:1699   */\n    tag_76:\n        /* \"#utility.yul\":1671:1692   */\n      tag_78\n        /* \"#utility.yul\":1686:1691   */\n      dup2\n        /* \"#utility.yul\":1671:1692   */\n      tag_79\n      jump\t// in\n    tag_78:\n        /* \"#utility.yul\":1666:1669   */\n      dup3\n        /* \"#utility.yul\":1659:1693   */\n      mstore\n        /* \"#utility.yul\":1590:1699   */\n      pop\n      pop\n      jump\t// out\n        /* \"#utility.yul\":1705:2069   */\n    tag_80:\n        /* \"#utility.yul\":1793:1796   */\n      0x00\n        /* \"#utility.yul\":1821:1860   */\n      tag_82\n        /* \"#utility.yul\":1854:1859   */\n      dup3\n        /* \"#utility.yul\":1821:1860   */\n      tag_83\n      jump\t// in\n    tag_82:\n        /* \"#utility.yul\":1876:1947   */\n      tag_84\n        /* \"#utility.yul\":1940:1946   */\n      dup2\n        /* \"#utility.yul\":1935:1938   */\n      dup6\n        /* \"#utility.yul\":1876:1947   */\n      tag_85\n      jump\t// in\n    tag_84:\n        /* \"#utility.yul\":1869:1947   */\n      swap4\n      pop\n        /* \"#utility.yul\":1956:2008   */\n      tag_86\n        /* \"#utility.yul\":2001:2007   */\n      dup2\n        /* \"#utility.yul\":1996:1999   */\n      dup6\n        /* \"#utility.yul\":1989:1993   */\n      0x20\n        /* \"#utility.yul\":1982:1987   */\n      dup7\n        /* \"#utility.yul\":1978:1994   */\n      add\n        /* \"#utility.yul\":1956:2008   */\n      tag_87\n      jump\t// in\n    tag_86:\n        /* \"#utility.yul\":2033:2062   */\n      tag_88\n        /* \"#utility.yul\":2055:2061   */\n      dup2\n        /* \"#utility.yul\":2033:2062   */\n      tag_89\n      jump\t// in\n    tag_88:\n        /* \"#utility.yul\":2028:2031   */\n      dup5\n        /* \"#utility.yul\":2024:2063   */\n      add\n        /* \"#utility.yul\":2017:2063   */\n      swap2\n      pop\n        /* \"#utility.yul\":1797:2069   */\n      pop\n        /* \"#utility.yul\":1705:2069   */\n      swap3\n      swap2\n      pop\n      pop\n      jump\t// out\n        /* \"#utility.yul\":2075:2441   */\n    tag_90:\n        /* \"#utility.yul\":2217:2220   */\n      0x00\n        /* \"#utility.yul\":2238:2305   */\n      tag_92\n        /* \"#utility.yul\":2302:2304   */\n      0x14\n        /* \"#utility.yul\":2297:2300   */\n      dup4\n        /* \"#utility.yul\":2238:2305   */\n      tag_85\n      jump\t// in\n    tag_92:\n        /* \"#utility.yul\":2231:2305   */\n      swap2\n      pop\n        /* \"#utility.yul\":2314:2407   */\n      tag_93\n        /* \"#utility.yul\":2403:2406   */\n      dup3\n        /* \"#utility.yul\":2314:2407   */\n      tag_94\n      jump\t// in\n    tag_93:\n        /* \"#utility.yul\":2432:2434   */\n      0x20\n        /* \"#utility.yul\":2427:2430   */\n      dup3\n        /* \"#utility.yul\":2423:2435   */\n      add\n        /* \"#utility.yul\":2416:2435   */\n      swap1\n      pop\n        /* \"#utility.yul\":2075:2441   */\n      swap2\n      swap1\n      pop\n      jump\t// out\n        /* \"#utility.yul\":2447:2565   */\n    tag_95:\n        /* \"#utility.yul\":2534:2558   */\n      tag_97\n        /* \"#utility.yul\":2552:2557   */\n      dup2\n        /* \"#utility.yul\":2534:2558   */\n      tag_98\n      jump\t// in\n    tag_97:\n        /* \"#utility.yul\":2529:2532   */\n      dup3\n        /* \"#utility.yul\":2522:2559   */\n      mstore\n        /* \"#utility.yul\":2447:2565   */\n      pop\n      pop\n      jump\t// out\n        /* \"#utility.yul\":2571:2891   */\n    tag_20:\n        /* \"#utility.yul\":2686:2690   */\n      0x00\n        /* \"#utility.yul\":2724:2726   */\n      0x40\n        /* \"#utility.yul\":2713:2722   */\n      dup3\n        /* \"#utility.yul\":2709:2727   */\n      add\n        /* \"#utility.yul\":2701:2727   */\n      swap1\n      pop\n        /* \"#utility.yul\":2737:2802   */\n      tag_100\n        /* \"#utility.yul\":2799:2800   */\n      0x00\n        /* \"#utility.yul\":2788:2797   */\n      dup4\n        /* \"#utility.yul\":2784:2801   */\n      add\n        /* \"#utility.yul\":2775:2781   */\n      dup6\n        /* \"#utility.yul\":2737:2802   */\n      tag_76\n      jump\t// in\n    tag_100:\n        /* \"#utility.yul\":2812:2884   */\n      tag_101\n        /* \"#utility.yul\":2880:2882   */\n      0x20\n        /* \"#utility.yul\":2869:2878   */\n      dup4\n        /* \"#utility.yul\":2865:2883   */\n      add\n        /* \"#utility.yul\":2856:2862   */\n      dup5\n        /* \"#utility.yul\":2812:2884   */\n      tag_95\n      jump\t// in\n    tag_101:\n        /* \"#utility.yul\":2571:2891   */\n      swap4\n      swap3\n      pop\n      pop\n      pop\n      jump\t// out\n        /* \"#utility.yul\":2897:3210   */\n    tag_25:\n        /* \"#utility.yul\":3010:3014   */\n      0x00\n        /* \"#utility.yul\":3048:3050   */\n      0x20\n        /* \"#utility.yul\":3037:3046   */\n      dup3\n        /* \"#utility.yul\":3033:3051   */\n      add\n        /* \"#utility.yul\":3025:3051   */\n      swap1\n      pop\n        /* \"#utility.yul\":3097:3106   */\n      dup2\n        /* \"#utility.yul\":3091:3095   */\n      dup2\n        /* \"#utility.yul\":3087:3107   */\n      sub\n        /* \"#utility.yul\":3083:3084   */\n      0x00\n        /* \"#utility.yul\":3072:3081   */\n      dup4\n        /* \"#utility.yul\":3068:3085   */\n      add\n        /* \"#utility.yul\":3061:3108   */\n      mstore\n        /* \"#utility.yul\":3125:3203   */\n      tag_103\n        /* \"#utility.yul\":3198:3202   */\n      dup2\n        /* \"#utility.yul\":3189:3195   */\n      dup5\n        /* \"#utility.yul\":3125:3203   */\n      tag_80\n      jump\t// in\n    tag_103:\n        /* \"#utility.yul\":3117:3203   */\n      swap1\n      pop\n        /* \"#utility.yul\":2897:3210   */\n      swap3\n      swap2\n      pop\n      pop\n      jump\t// out\n        /* \"#utility.yul\":3216:3635   */\n    tag_9:\n        /* \"#utility.yul\":3382:3386   */\n      0x00\n        /* \"#utility.yul\":3420:3422   */\n      0x20\n        /* \"#utility.yul\":3409:3418   */\n      dup3\n        /* \"#utility.yul\":3405:3423   */\n      add\n        /* \"#utility.yul\":3397:3423   */\n      swap1\n      pop\n        /* \"#utility.yul\":3469:3478   */\n      dup2\n        /* \"#utility.yul\":3463:3467   */\n      dup2\n        /* \"#utility.yul\":3459:3479   */\n      sub\n        /* \"#utility.yul\":3455:3456   */\n      0x00\n        /* \"#utility.yul\":3444:3453   */\n      dup4\n        /* \"#utility.yul\":3440:3457   */\n      add\n        /* \"#utility.yul\":3433:3480   */\n      mstore\n        /* \"#utility.yul\":3497:3628   */\n      tag_105\n        /* \"#utility.yul\":3623:3627   */\n      dup2\n        /* \"#utility.yul\":3497:3628   */\n      tag_90\n      jump\t// in\n    tag_105:\n        /* \"#utility.yul\":3489:3628   */\n      swap1\n      pop\n        /* \"#utility.yul\":3216:3635   */\n      swap2\n      swap1\n      pop\n      jump\t// out\n        /* \"#utility.yul\":3641:3863   */\n    tag_14:\n        /* \"#utility.yul\":3734:3738   */\n      0x00\n        /* \"#utility.yul\":3772:3774   */\n      0x20\n        /* \"#utility.yul\":3761:3770   */\n      dup3\n        /* \"#utility.yul\":3757:3775   */\n      add\n        /* \"#utility.yul\":3749:3775   */\n      swap1\n      pop\n        /* \"#utility.yul\":3785:3856   */\n      tag_107\n        /* \"#utility.yul\":3853:3854   */\n      0x00\n        /* \"#utility.yul\":3842:3851   */\n      dup4\n        /* \"#utility.yul\":3838:3855   */\n      add\n        /* \"#utility.yul\":3829:3835   */\n      dup5\n        /* \"#utility.yul\":3785:3856   */\n      tag_95\n      jump\t// in\n    tag_107:\n        /* \"#utility.yul\":3641:3863   */\n      swap3\n      swap2\n      pop\n      pop\n      jump\t// out\n        /* \"#utility.yul\":3869:3998   */\n    tag_51:\n        /* \"#utility.yul\":3903:3909   */\n      0x00\n        /* \"#utility.yul\":3930:3950   */\n      tag_109\n      tag_110\n      jump\t// in\n    tag_109:\n        /* \"#utility.yul\":3920:3950   */\n      swap1\n      pop\n        /* \"#utility.yul\":3959:3992   */\n      tag_111\n        /* \"#utility.yul\":3987:3991   */\n      dup3\n        /* \"#utility.yul\":3979:3985   */\n      dup3\n        /* \"#utility.yul\":3959:3992   */\n      tag_112\n      jump\t// in\n    tag_111:\n        /* \"#utility.yul\":3869:3998   */\n      swap2\n      swap1\n      pop\n      jump\t// out\n        /* \"#utility.yul\":4004:4079   */\n    tag_110:\n        /* \"#utility.yul\":4037:4043   */\n      0x00\n        /* \"#utility.yul\":4070:4072   */\n      0x40\n        /* \"#utility.yul\":4064:4073   */\n      mload\n        /* \"#utility.yul\":4054:4073   */\n      swap1\n      pop\n        /* \"#utility.yul\":4004:4079   */\n      swap1\n      jump\t// out\n        /* \"#utility.yul\":4085:4393   */\n    tag_50:\n        /* \"#utility.yul\":4147:4151   */\n      0x00\n        /* \"#utility.yul\":4237:4255   */\n      0xffffffffffffffff\n        /* \"#utility.yul\":4229:4235   */\n      dup3\n        /* \"#utility.yul\":4226:4256   */\n      gt\n        /* \"#utility.yul\":4223:4279   */\n      iszero\n      tag_115\n      jumpi\n        /* \"#utility.yul\":4259:4277   */\n      tag_116\n      tag_117\n      jump\t// in\n    tag_116:\n        /* \"#utility.yul\":4223:4279   */\n    tag_115:\n        /* \"#utility.yul\":4297:4326   */\n      tag_118\n        /* \"#utility.yul\":4319:4325   */\n      dup3\n        /* \"#utility.yul\":4297:4326   */\n      tag_89\n      jump\t// in\n    tag_118:\n        /* \"#utility.yul\":4289:4326   */\n      swap1\n      pop\n        /* \"#utility.yul\":4381:4385   */\n      0x20\n        /* \"#utility.yul\":4375:4379   */\n      dup2\n        /* \"#utility.yul\":4371:4386   */\n      add\n        /* \"#utility.yul\":4363:4386   */\n      swap1\n      pop\n        /* \"#utility.yul\":4085:4393   */\n      swap2\n      swap1\n      pop\n      jump\t// out\n        /* \"#utility.yul\":4399:4498   */\n    tag_83:\n        /* \"#utility.yul\":4451:4457   */\n      0x00\n        /* \"#utility.yul\":4485:4490   */\n      dup2\n        /* \"#utility.yul\":4479:4491   */\n      mload\n        /* \"#utility.yul\":4469:4491   */\n      swap1\n      pop\n        /* \"#utility.yul\":4399:4498   */\n      swap2\n      swap1\n      pop\n      jump\t// out\n        /* \"#utility.yul\":4504:4673   */\n    tag_85:\n        /* \"#utility.yul\":4588:4599   */\n      0x00\n        /* \"#utility.yul\":4622:4628   */\n      dup3\n        /* \"#utility.yul\":4617:4620   */\n      dup3\n        /* \"#utility.yul\":4610:4629   */\n      mstore\n        /* \"#utility.yul\":4662:4666   */\n      0x20\n        /* \"#utility.yul\":4657:4660   */\n      dup3\n        /* \"#utility.yul\":4653:4667   */\n      add\n        /* \"#utility.yul\":4638:4667   */\n      swap1\n      pop\n        /* \"#utility.yul\":4504:4673   */\n      swap3\n      swap2\n      pop\n      pop\n      jump\t// out\n        /* \"#utility.yul\":4679:4769   */\n    tag_79:\n        /* \"#utility.yul\":4713:4720   */\n      0x00\n        /* \"#utility.yul\":4756:4761   */\n      dup2\n        /* \"#utility.yul\":4749:4762   */\n      iszero\n        /* \"#utility.yul\":4742:4763   */\n      iszero\n        /* \"#utility.yul\":4731:4763   */\n      swap1\n      pop\n        /* \"#utility.yul\":4679:4769   */\n      swap2\n      swap1\n      pop\n      jump\t// out\n        /* \"#utility.yul\":4775:4852   */\n    tag_98:\n        /* \"#utility.yul\":4812:4819   */\n      0x00\n        /* \"#utility.yul\":4841:4846   */\n      dup2\n        /* \"#utility.yul\":4830:4846   */\n      swap1\n      pop\n        /* \"#utility.yul\":4775:4852   */\n      swap2\n      swap1\n      pop\n      jump\t// out\n        /* \"#utility.yul\":4858:5012   */\n    tag_56:\n        /* \"#utility.yul\":4942:4948   */\n      dup3\n        /* \"#utility.yul\":4937:4940   */\n      dup2\n        /* \"#utility.yul\":4932:4935   */\n      dup4\n        /* \"#utility.yul\":4919:4949   */\n      calldatacopy\n        /* \"#utility.yul\":5004:5005   */\n      0x00\n        /* \"#utility.yul\":4995:5001   */\n      dup4\n        /* \"#utility.yul\":4990:4993   */\n      dup4\n        /* \"#utility.yul\":4986:5002   */\n      add\n        /* \"#utility.yul\":4979:5006   */\n      mstore\n        /* \"#utility.yul\":4858:5012   */\n      pop\n      pop\n      pop\n      jump\t// out\n        /* \"#utility.yul\":5018:5325   */\n    tag_87:\n        /* \"#utility.yul\":5086:5087   */\n      0x00\n        /* \"#utility.yul\":5096:5209   */\n    tag_125:\n        /* \"#utility.yul\":5110:5116   */\n      dup4\n        /* \"#utility.yul\":5107:5108   */\n      dup2\n        /* \"#utility.yul\":5104:5117   */\n      lt\n        /* \"#utility.yul\":5096:5209   */\n      iszero\n      tag_127\n      jumpi\n        /* \"#utility.yul\":5195:5196   */\n      dup1\n        /* \"#utility.yul\":5190:5193   */\n      dup3\n        /* \"#utility.yul\":5186:5197   */\n      add\n        /* \"#utility.yul\":5180:5198   */\n      mload\n        /* \"#utility.yul\":5176:5177   */\n      dup2\n        /* \"#utility.yul\":5171:5174   */\n      dup5\n        /* \"#utility.yul\":5167:5178   */\n      add\n        /* \"#utility.yul\":5160:5199   */\n      mstore\n        /* \"#utility.yul\":5132:5134   */\n      0x20\n        /* \"#utility.yul\":5129:5130   */\n      dup2\n        /* \"#utility.yul\":5125:5135   */\n      add\n        /* \"#utility.yul\":5120:5135   */\n      swap1\n      pop\n        /* \"#utility.yul\":5096:5209   */\n      jump(tag_125)\n    tag_127:\n        /* \"#utility.yul\":5227:5233   */\n      dup4\n        /* \"#utility.yul\":5224:5225   */\n      dup2\n        /* \"#utility.yul\":5221:5234   */\n      gt\n        /* \"#utility.yul\":5218:5319   */\n      iszero\n      tag_128\n      jumpi\n        /* \"#utility.yul\":5307:5308   */\n      0x00\n        /* \"#utility.yul\":5298:5304   */\n      dup5\n        /* \"#utility.yul\":5293:5296   */\n      dup5\n        /* \"#utility.yul\":5289:5305   */\n      add\n        /* \"#utility.yul\":5282:5309   */\n      mstore\n        /* \"#utility.yul\":5218:5319   */\n    tag_128:\n        /* \"#utility.yul\":5067:5325   */\n      pop\n        /* \"#utility.yul\":5018:5325   */\n      pop\n      pop\n      pop\n      jump\t// out\n        /* \"#utility.yul\":5331:5651   */\n    tag_30:\n        /* \"#utility.yul\":5375:5381   */\n      0x00\n        /* \"#utility.yul\":5412:5413   */\n      0x02\n        /* \"#utility.yul\":5406:5410   */\n      dup3\n        /* \"#utility.yul\":5402:5414   */\n      div\n        /* \"#utility.yul\":5392:5414   */\n      swap1\n      pop\n        /* \"#utility.yul\":5459:5460   */\n      0x01\n        /* \"#utility.yul\":5453:5457   */\n      dup3\n        /* \"#utility.yul\":5449:5461   */\n      and\n        /* \"#utility.yul\":5480:5498   */\n      dup1\n        /* \"#utility.yul\":5470:5551   */\n      tag_130\n      jumpi\n        /* \"#utility.yul\":5536:5540   */\n      0x7f\n        /* \"#utility.yul\":5528:5534   */\n      dup3\n        /* \"#utility.yul\":5524:5541   */\n      and\n        /* \"#utility.yul\":5514:5541   */\n      swap2\n      pop\n        /* \"#utility.yul\":5470:5551   */\n    tag_130:\n        /* \"#utility.yul\":5598:5600   */\n      0x20\n        /* \"#utility.yul\":5590:5596   */\n      dup3\n        /* \"#utility.yul\":5587:5601   */\n      lt\n        /* \"#utility.yul\":5567:5585   */\n      dup2\n        /* \"#utility.yul\":5564:5602   */\n      eq\n        /* \"#utility.yul\":5561:5645   */\n      iszero\n      tag_131\n      jumpi\n        /* \"#utility.yul\":5617:5635   */\n      tag_132\n      tag_133\n      jump\t// in\n    tag_132:\n        /* \"#utility.yul\":5561:5645   */\n    tag_131:\n        /* \"#utility.yul\":5382:5651   */\n      pop\n        /* \"#utility.yul\":5331:5651   */\n      swap2\n      swap1\n      pop\n      jump\t// out\n        /* \"#utility.yul\":5657:5938   */\n    tag_112:\n        /* \"#utility.yul\":5740:5767   */\n      tag_135\n        /* \"#utility.yul\":5762:5766   */\n      dup3\n        /* \"#utility.yul\":5740:5767   */\n      tag_89\n      jump\t// in\n    tag_135:\n        /* \"#utility.yul\":5732:5738   */\n      dup2\n        /* \"#utility.yul\":5728:5768   */\n      add\n        /* \"#utility.yul\":5870:5876   */\n      dup2\n        /* \"#utility.yul\":5858:5868   */\n      dup2\n        /* \"#utility.yul\":5855:5877   */\n      lt\n        /* \"#utility.yul\":5834:5852   */\n      0xffffffffffffffff\n        /* \"#utility.yul\":5822:5832   */\n      dup3\n        /* \"#utility.yul\":5819:5853   */\n      gt\n        /* \"#utility.yul\":5816:5878   */\n      or\n        /* \"#utility.yul\":5813:5901   */\n      iszero\n      tag_136\n      jumpi\n        /* \"#utility.yul\":5881:5899   */\n      tag_137\n      tag_117\n      jump\t// in\n    tag_137:\n        /* \"#utility.yul\":5813:5901   */\n    tag_136:\n        /* \"#utility.yul\":5921:5931   */\n      dup1\n        /* \"#utility.yul\":5917:5919   */\n      0x40\n        /* \"#utility.yul\":5910:5932   */\n      mstore\n        /* \"#utility.yul\":5700:5938   */\n      pop\n        /* \"#utility.yul\":5657:5938   */\n      pop\n      pop\n      jump\t// out\n        /* \"#utility.yul\":5944:6124   */\n    tag_133:\n        /* \"#utility.yul\":5992:6069   */\n      0x4e487b7100000000000000000000000000000000000000000000000000000000\n        /* \"#utility.yul\":5989:5990   */\n      0x00\n        /* \"#utility.yul\":5982:6070   */\n      mstore\n        /* \"#utility.yul\":6089:6093   */\n      0x22\n        /* \"#utility.yul\":6086:6087   */\n      0x04\n        /* \"#utility.yul\":6079:6094   */\n      mstore\n        /* \"#utility.yul\":6113:6117   */\n      0x24\n        /* \"#utility.yul\":6110:6111   */\n      0x00\n        /* \"#utility.yul\":6103:6118   */\n      revert\n        /* \"#utility.yul\":6130:6310   */\n    tag_117:\n        /* \"#utility.yul\":6178:6255   */\n      0x4e487b7100000000000000000000000000000000000000000000000000000000\n        /* \"#utility.yul\":6175:6176   */\n      0x00\n        /* \"#utility.yul\":6168:6256   */\n      mstore\n        /* \"#utility.yul\":6275:6279   */\n      0x41\n        /* \"#utility.yul\":6272:6273   */\n      0x04\n        /* \"#utility.yul\":6265:6280   */\n      mstore\n        /* \"#utility.yul\":6299:6303   */\n      0x24\n        /* \"#utility.yul\":6296:6297   */\n      0x00\n        /* \"#utility.yul\":6289:6304   */\n      revert\n        /* \"#utility.yul\":6316:6433   */\n    tag_61:\n        /* \"#utility.yul\":6425:6426   */\n      0x00\n        /* \"#utility.yul\":6422:6423   */\n      dup1\n        /* \"#utility.yul\":6415:6427   */\n      revert\n        /* \"#utility.yul\":6439:6556   */\n    tag_54:\n        /* \"#utility.yul\":6548:6549   */\n      0x00\n        /* \"#utility.yul\":6545:6546   */\n      dup1\n        /* \"#utility.yul\":6538:6550   */\n      revert\n        /* \"#utility.yul\":6562:6679   */\n    tag_73:\n        /* \"#utility.yul\":6671:6672   */\n      0x00\n        /* \"#utility.yul\":6668:6669   */\n      dup1\n        /* \"#utility.yul\":6661:6673   */\n      revert\n        /* \"#utility.yul\":6685:6802   */\n    tag_70:\n        /* \"#utility.yul\":6794:6795   */\n      0x00\n        /* \"#utility.yul\":6791:6792   */\n      dup1\n        /* \"#utility.yul\":6784:6796   */\n      revert\n        /* \"#utility.yul\":6808:6910   */\n    tag_89:\n        /* \"#utility.yul\":6849:6855   */\n      0x00\n        /* \"#utility.yul\":6900:6902   */\n      0x1f\n        /* \"#utility.yul\":6896:6903   */\n      not\n        /* \"#utility.yul\":6891:6893   */\n      0x1f\n        /* \"#utility.yul\":6884:6889   */\n      dup4\n        /* \"#utility.yul\":6880:6894   */\n      add\n        /* \"#utility.yul\":6876:6904   */\n      and\n        /* \"#utility.yul\":6866:6904   */\n      swap1\n      pop\n        /* \"#utility.yul\":6808:6910   */\n      swap2\n      swap1\n      pop\n      jump\t// out\n        /* \"#utility.yul\":6916:7086   */\n    tag_94:\n        /* \"#utility.yul\":7056:7078   */\n      0x66616c6c206261636b207761732063616c6c6564000000000000000000000000\n        /* \"#utility.yul\":7052:7053   */\n      0x00\n        /* \"#utility.yul\":7044:7050   */\n      dup3\n        /* \"#utility.yul\":7040:7054   */\n      add\n        /* \"#utility.yul\":7033:7079   */\n      mstore\n        /* \"#utility.yul\":6916:7086   */\n      pop\n      jump\t// out\n        /* \"#utility.yul\":7092:7214   */\n    tag_66:\n        /* \"#utility.yul\":7165:7189   */\n      tag_147\n        /* \"#utility.yul\":7183:7188   */\n      dup2\n        /* \"#utility.yul\":7165:7189   */\n      tag_98\n      jump\t// in\n    tag_147:\n        /* \"#utility.yul\":7158:7163   */\n      dup2\n        /* \"#utility.yul\":7155:7190   */\n      eq\n        /* \"#utility.yul\":7145:7208   */\n      tag_148\n      jumpi\n        /* \"#utility.yul\":7204:7205   */\n      0x00\n        /* \"#utility.yul\":7201:7202   */\n      dup1\n        /* \"#utility.yul\":7194:7206   */\n      revert\n        /* \"#utility.yul\":7145:7208   */\n    tag_148:\n        /* \"#utility.yul\":7092:7214   */\n      pop\n      jump\t// out\n\n    auxdata: 0xa2646970667358221220cc4319295751f0c27bea89fc4f70efae6f58ac479b8adb18b498b9b581f0407f64736f6c63430008070033\n}\n",
				"bytecode": {
					"linkReferences": {},
					"object": "608060405234801561001057600080fd5b50610666806100206000396000f3fe6080604052600436106100385760003560e01c80630c55699c1461007057806324ccab8f1461009b578063e21f37ce146100cc57610039565b5b7fcf34ef537ac33ee1ac626ca1587a0a7e8e51561e5514f8cb36afa1c5102b3bab60405161006690610405565b60405180910390a1005b34801561007c57600080fd5b506100856100f7565b6040516100929190610425565b60405180910390f35b6100b560048036038101906100b091906102e4565b6100fd565b6040516100c39291906103ba565b60405180910390f35b3480156100d857600080fd5b506100e161012e565b6040516100ee91906103e3565b60405180910390f35b60015481565b60008083600090805190602001906101169291906101bc565b508260018190555060016103e7915091509250929050565b6000805461013b9061050a565b80601f01602080910402602001604051908101604052809291908181526020018280546101679061050a565b80156101b45780601f10610189576101008083540402835291602001916101b4565b820191906000526020600020905b81548152906001019060200180831161019757829003601f168201915b505050505081565b8280546101c89061050a565b90600052602060002090601f0160209004810192826101ea5760008555610231565b82601f1061020357805160ff1916838001178555610231565b82800160010185558215610231579182015b82811115610230578251825591602001919060010190610215565b5b50905061023e9190610242565b5090565b5b8082111561025b576000816000905550600101610243565b5090565b600061027261026d84610465565b610440565b90508281526020810184848401111561028e5761028d6105d0565b5b6102998482856104c8565b509392505050565b600082601f8301126102b6576102b56105cb565b5b81356102c684826020860161025f565b91505092915050565b6000813590506102de81610619565b92915050565b600080604083850312156102fb576102fa6105da565b5b600083013567ffffffffffffffff811115610319576103186105d5565b5b610325858286016102a1565b9250506020610336858286016102cf565b9150509250929050565b610349816104b2565b82525050565b600061035a82610496565b61036481856104a1565b93506103748185602086016104d7565b61037d816105df565b840191505092915050565b60006103956014836104a1565b91506103a0826105f0565b602082019050919050565b6103b4816104be565b82525050565b60006040820190506103cf6000830185610340565b6103dc60208301846103ab565b9392505050565b600060208201905081810360008301526103fd818461034f565b905092915050565b6000602082019050818103600083015261041e81610388565b9050919050565b600060208201905061043a60008301846103ab565b92915050565b600061044a61045b565b9050610456828261053c565b919050565b6000604051905090565b600067ffffffffffffffff8211156104805761047f61059c565b5b610489826105df565b9050602081019050919050565b600081519050919050565b600082825260208201905092915050565b60008115159050919050565b6000819050919050565b82818337600083830152505050565b60005b838110156104f55780820151818401526020810190506104da565b83811115610504576000848401525b50505050565b6000600282049050600182168061052257607f821691505b602082108114156105365761053561056d565b5b50919050565b610545826105df565b810181811067ffffffffffffffff821117156105645761056361059c565b5b80604052505050565b7f4e487b7100000000000000000000000000000000000000000000000000000000600052602260045260246000fd5b7f4e487b7100000000000000000000000000000000000000000000000000000000600052604160045260246000fd5b600080fd5b600080fd5b600080fd5b600080fd5b6000601f19601f8301169050919050565b7f66616c6c206261636b207761732063616c6c6564000000000000000000000000600082015250565b610622816104be565b811461062d57600080fd5b5056fea2646970667358221220cc4319295751f0c27bea89fc4f70efae6f58ac479b8adb18b498b9b581f0407f64736f6c63430008070033",
					"opcodes": "PUSH1 0x80 PUSH1 0x40 MSTORE CALLVALUE DUP1 ISZERO PUSH2 0x10 JUMPI PUSH1 0x0 DUP1 REVERT JUMPDEST POP PUSH2 0x666 DUP1 PUSH2 0x20 PUSH1 0x0 CODECOPY PUSH1 0x0 RETURN INVALID PUSH1 0x80 PUSH1 0x40 MSTORE PUSH1 0x4 CALLDATASIZE LT PUSH2 0x38 JUMPI PUSH1 0x0 CALLDATALOAD PUSH1 0xE0 SHR DUP1 PUSH4 0xC55699C EQ PUSH2 0x70 JUMPI DUP1 PUSH4 0x24CCAB8F EQ PUSH2 0x9B JUMPI DUP1 PUSH4 0xE21F37CE EQ PUSH2 0xCC JUMPI PUSH2 0x39 JUMP JUMPDEST JUMPDEST PUSH32 0xCF34EF537AC33EE1AC626CA1587A0A7E8E51561E5514F8CB36AFA1C5102B3BAB PUSH1 0x40 MLOAD PUSH2 0x66 SWAP1 PUSH2 0x405 JUMP JUMPDEST PUSH1 0x40 MLOAD DUP1 SWAP2 SUB SWAP1 LOG1 STOP JUMPDEST CALLVALUE DUP1 ISZERO PUSH2 0x7C JUMPI PUSH1 0x0 DUP1 REVERT JUMPDEST POP PUSH2 0x85 PUSH2 0xF7 JUMP JUMPDEST PUSH1 0x40 MLOAD PUSH2 0x92 SWAP2 SWAP1 PUSH2 0x425 JUMP JUMPDEST PUSH1 0x40 MLOAD DUP1 SWAP2 SUB SWAP1 RETURN JUMPDEST PUSH2 0xB5 PUSH1 0x4 DUP1 CALLDATASIZE SUB DUP2 ADD SWAP1 PUSH2 0xB0 SWAP2 SWAP1 PUSH2 0x2E4 JUMP JUMPDEST PUSH2 0xFD JUMP JUMPDEST PUSH1 0x40 MLOAD PUSH2 0xC3 SWAP3 SWAP2 SWAP1 PUSH2 0x3BA JUMP JUMPDEST PUSH1 0x40 MLOAD DUP1 SWAP2 SUB SWAP1 RETURN JUMPDEST CALLVALUE DUP1 ISZERO PUSH2 0xD8 JUMPI PUSH1 0x0 DUP1 REVERT JUMPDEST POP PUSH2 0xE1 PUSH2 0x12E JUMP JUMPDEST PUSH1 0x40 MLOAD PUSH2 0xEE SWAP2 SWAP1 PUSH2 0x3E3 JUMP JUMPDEST PUSH1 0x40 MLOAD DUP1 SWAP2 SUB SWAP1 RETURN JUMPDEST PUSH1 0x1 SLOAD DUP2 JUMP JUMPDEST PUSH1 0x0 DUP1 DUP4 PUSH1 0x0 SWAP1 DUP1 MLOAD SWAP1 PUSH1 0x20 ADD SWAP1 PUSH2 0x116 SWAP3 SWAP2 SWAP1 PUSH2 0x1BC JUMP JUMPDEST POP DUP3 PUSH1 0x1 DUP2 SWAP1 SSTORE POP PUSH1 0x1 PUSH2 0x3E7 SWAP2 POP SWAP2 POP SWAP3 POP SWAP3 SWAP1 POP JUMP JUMPDEST PUSH1 0x0 DUP1 SLOAD PUSH2 0x13B SWAP1 PUSH2 0x50A JUMP JUMPDEST DUP1 PUSH1 0x1F ADD PUSH1 0x20 DUP1 SWAP2 DIV MUL PUSH1 0x20 ADD PUSH1 0x40 MLOAD SWAP1 DUP2 ADD PUSH1 0x40 MSTORE DUP1 SWAP3 SWAP2 SWAP1 DUP2 DUP2 MSTORE PUSH1 0x20 ADD DUP3 DUP1 SLOAD PUSH2 0x167 SWAP1 PUSH2 0x50A JUMP JUMPDEST DUP1 ISZERO PUSH2 0x1B4 JUMPI DUP1 PUSH1 0x1F LT PUSH2 0x189 JUMPI PUSH2 0x100 DUP1 DUP4 SLOAD DIV MUL DUP4 MSTORE SWAP2 PUSH1 0x20 ADD SWAP2 PUSH2 0x1B4 JUMP JUMPDEST DUP3 ADD SWAP2 SWAP1 PUSH1 0x0 MSTORE PUSH1 0x20 PUSH1 0x0 KECCAK256 SWAP1 JUMPDEST DUP2 SLOAD DUP2 MSTORE SWAP1 PUSH1 0x1 ADD SWAP1 PUSH1 0x20 ADD DUP1 DUP4 GT PUSH2 0x197 JUMPI DUP3 SWAP1 SUB PUSH1 0x1F AND DUP3 ADD SWAP2 JUMPDEST POP POP POP POP POP DUP2 JUMP JUMPDEST DUP3 DUP1 SLOAD PUSH2 0x1C8 SWAP1 PUSH2 0x50A JUMP JUMPDEST SWAP1 PUSH1 0x0 MSTORE PUSH1 0x20 PUSH1 0x0 KECCAK256 SWAP1 PUSH1 0x1F ADD PUSH1 0x20 SWAP1 DIV DUP2 ADD SWAP3 DUP3 PUSH2 0x1EA JUMPI PUSH1 0x0 DUP6 SSTORE PUSH2 0x231 JUMP JUMPDEST DUP3 PUSH1 0x1F LT PUSH2 0x203 JUMPI DUP1 MLOAD PUSH1 0xFF NOT AND DUP4 DUP1 ADD OR DUP6 SSTORE PUSH2 0x231 JUMP JUMPDEST DUP3 DUP1 ADD PUSH1 0x1 ADD DUP6 SSTORE DUP3 ISZERO PUSH2 0x231 JUMPI SWAP2 DUP3 ADD JUMPDEST DUP3 DUP2 GT ISZERO PUSH2 0x230 JUMPI DUP3 MLOAD DUP3 SSTORE SWAP2 PUSH1 0x20 ADD SWAP2 SWAP1 PUSH1 0x1 ADD SWAP1 PUSH2 0x215 JUMP JUMPDEST JUMPDEST POP SWAP1 POP PUSH2 0x23E SWAP2 SWAP1 PUSH2 0x242 JUMP JUMPDEST POP SWAP1 JUMP JUMPDEST JUMPDEST DUP1 DUP3 GT ISZERO PUSH2 0x25B JUMPI PUSH1 0x0 DUP2 PUSH1 0x0 SWAP1 SSTORE POP PUSH1 0x1 ADD PUSH2 0x243 JUMP JUMPDEST POP SWAP1 JUMP JUMPDEST PUSH1 0x0 PUSH2 0x272 PUSH2 0x26D DUP5 PUSH2 0x465 JUMP JUMPDEST PUSH2 0x440 JUMP JUMPDEST SWAP1 POP DUP3 DUP2 MSTORE PUSH1 0x20 DUP2 ADD DUP5 DUP5 DUP5 ADD GT ISZERO PUSH2 0x28E JUMPI PUSH2 0x28D PUSH2 0x5D0 JUMP JUMPDEST JUMPDEST PUSH2 0x299 DUP5 DUP3 DUP6 PUSH2 0x4C8 JUMP JUMPDEST POP SWAP4 SWAP3 POP POP POP JUMP JUMPDEST PUSH1 0x0 DUP3 PUSH1 0x1F DUP4 ADD SLT PUSH2 0x2B6 JUMPI PUSH2 0x2B5 PUSH2 0x5CB JUMP JUMPDEST JUMPDEST DUP2 CALLDATALOAD PUSH2 0x2C6 DUP5 DUP3 PUSH1 0x20 DUP7 ADD PUSH2 0x25F JUMP JUMPDEST SWAP2 POP POP SWAP3 SWAP2 POP POP JUMP JUMPDEST PUSH1 0x0 DUP2 CALLDATALOAD SWAP1 POP PUSH2 0x2DE DUP2 PUSH2 0x619 JUMP JUMPDEST SWAP3 SWAP2 POP POP JUMP JUMPDEST PUSH1 0x0 DUP1 PUSH1 0x40 DUP4 DUP6 SUB SLT ISZERO PUSH2 0x2FB JUMPI PUSH2 0x2FA PUSH2 0x5DA JUMP JUMPDEST JUMPDEST PUSH1 0x0 DUP4 ADD CALLDATALOAD PUSH8 0xFFFFFFFFFFFFFFFF DUP2 GT ISZERO PUSH2 0x319 JUMPI PUSH2 0x318 PUSH2 0x5D5 JUMP JUMPDEST JUMPDEST PUSH2 0x325 DUP6 DUP3 DUP7 ADD PUSH2 0x2A1 JUMP JUMPDEST SWAP3 POP POP PUSH1 0x20 PUSH2 0x336 DUP6 DUP3 DUP7 ADD PUSH2 0x2CF JUMP JUMPDEST SWAP2 POP POP SWAP3 POP SWAP3 SWAP1 POP JUMP JUMPDEST PUSH2 0x349 DUP2 PUSH2 0x4B2 JUMP JUMPDEST DUP3 MSTORE POP POP JUMP JUMPDEST PUSH1 0x0 PUSH2 0x35A DUP3 PUSH2 0x496 JUMP JUMPDEST PUSH2 0x364 DUP2 DUP6 PUSH2 0x4A1 JUMP JUMPDEST SWAP4 POP PUSH2 0x374 DUP2 DUP6 PUSH1 0x20 DUP7 ADD PUSH2 0x4D7 JUMP JUMPDEST PUSH2 0x37D DUP2 PUSH2 0x5DF JUMP JUMPDEST DUP5 ADD SWAP2 POP POP SWAP3 SWAP2 POP POP JUMP JUMPDEST PUSH1 0x0 PUSH2 0x395 PUSH1 0x14 DUP4 PUSH2 0x4A1 JUMP JUMPDEST SWAP2 POP PUSH2 0x3A0 DUP3 PUSH2 0x5F0 JUMP JUMPDEST PUSH1 0x20 DUP3 ADD SWAP1 POP SWAP2 SWAP1 POP JUMP JUMPDEST PUSH2 0x3B4 DUP2 PUSH2 0x4BE JUMP JUMPDEST DUP3 MSTORE POP POP JUMP JUMPDEST PUSH1 0x0 PUSH1 0x40 DUP3 ADD SWAP1 POP PUSH2 0x3CF PUSH1 0x0 DUP4 ADD DUP6 PUSH2 0x340 JUMP JUMPDEST PUSH2 0x3DC PUSH1 0x20 DUP4 ADD DUP5 PUSH2 0x3AB JUMP JUMPDEST SWAP4 SWAP3 POP POP POP JUMP JUMPDEST PUSH1 0x0 PUSH1 0x20 DUP3 ADD SWAP1 POP DUP2 DUP2 SUB PUSH1 0x0 DUP4 ADD MSTORE PUSH2 0x3FD DUP2 DUP5 PUSH2 0x34F JUMP JUMPDEST SWAP1 POP SWAP3 SWAP2 POP POP JUMP JUMPDEST PUSH1 0x0 PUSH1 0x20 DUP3 ADD SWAP1 POP DUP2 DUP2 SUB PUSH1 0x0 DUP4 ADD MSTORE PUSH2 0x41E DUP2 PUSH2 0x388 JUMP JUMPDEST SWAP1 POP SWAP2 SWAP1 POP JUMP JUMPDEST PUSH1 0x0 PUSH1 0x20 DUP3 ADD SWAP1 POP PUSH2 0x43A PUSH1 0x0 DUP4 ADD DUP5 PUSH2 0x3AB JUMP JUMPDEST SWAP3 SWAP2 POP POP JUMP JUMPDEST PUSH1 0x0 PUSH2 0x44A PUSH2 0x45B JUMP JUMPDEST SWAP1 POP PUSH2 0x456 DUP3 DUP3 PUSH2 0x53C JUMP JUMPDEST SWAP2 SWAP1 POP JUMP JUMPDEST PUSH1 0x0 PUSH1 0x40 MLOAD SWAP1 POP SWAP1 JUMP JUMPDEST PUSH1 0x0 PUSH8 0xFFFFFFFFFFFFFFFF DUP3 GT ISZERO PUSH2 0x480 JUMPI PUSH2 0x47F PUSH2 0x59C JUMP JUMPDEST JUMPDEST PUSH2 0x489 DUP3 PUSH2 0x5DF JUMP JUMPDEST SWAP1 POP PUSH1 0x20 DUP2 ADD SWAP1 POP SWAP2 SWAP1 POP JUMP JUMPDEST PUSH1 0x0 DUP2 MLOAD SWAP1 POP SWAP2 SWAP1 POP JUMP JUMPDEST PUSH1 0x0 DUP3 DUP3 MSTORE PUSH1 0x20 DUP3 ADD SWAP1 POP SWAP3 SWAP2 POP POP JUMP JUMPDEST PUSH1 0x0 DUP2 ISZERO ISZERO SWAP1 POP SWAP2 SWAP1 POP JUMP JUMPDEST PUSH1 0x0 DUP2 SWAP1 POP SWAP2 SWAP1 POP JUMP JUMPDEST DUP3 DUP2 DUP4 CALLDATACOPY PUSH1 0x0 DUP4 DUP4 ADD MSTORE POP POP POP JUMP JUMPDEST PUSH1 0x0 JUMPDEST DUP4 DUP2 LT ISZERO PUSH2 0x4F5 JUMPI DUP1 DUP3 ADD MLOAD DUP2 DUP5 ADD MSTORE PUSH1 0x20 DUP2 ADD SWAP1 POP PUSH2 0x4DA JUMP JUMPDEST DUP4 DUP2 GT ISZERO PUSH2 0x504 JUMPI PUSH1 0x0 DUP5 DUP5 ADD MSTORE JUMPDEST POP POP POP POP JUMP JUMPDEST PUSH1 0x0 PUSH1 0x2 DUP3 DIV SWAP1 POP PUSH1 0x1 DUP3 AND DUP1 PUSH2 0x522 JUMPI PUSH1 0x7F DUP3 AND SWAP2 POP JUMPDEST PUSH1 0x20 DUP3 LT DUP2 EQ ISZERO PUSH2 0x536 JUMPI PUSH2 0x535 PUSH2 0x56D JUMP JUMPDEST JUMPDEST POP SWAP2 SWAP1 POP JUMP JUMPDEST PUSH2 0x545 DUP3 PUSH2 0x5DF JUMP JUMPDEST DUP2 ADD DUP2 DUP2 LT PUSH8 0xFFFFFFFFFFFFFFFF DUP3 GT OR ISZERO PUSH2 0x564 JUMPI PUSH2 0x563 PUSH2 0x59C JUMP JUMPDEST JUMPDEST DUP1 PUSH1 0x40 MSTORE POP POP POP JUMP JUMPDEST PUSH32 0x4E487B7100000000000000000000000000000000000000000000000000000000 PUSH1 0x0 MSTORE PUSH1 0x22 PUSH1 0x4 MSTORE PUSH1 0x24 PUSH1 0x0 REVERT JUMPDEST PUSH32 0x4E487B7100000000000000000000000000000000000000000000000000000000 PUSH1 0x0 MSTORE PUSH1 0x41 PUSH1 0x4 MSTORE PUSH1 0x24 PUSH1 0x0 REVERT JUMPDEST PUSH1 0x0 DUP1 REVERT JUMPDEST PUSH1 0x0 DUP1 REVERT JUMPDEST PUSH1 0x0 DUP1 REVERT JUMPDEST PUSH1 0x0 DUP1 REVERT JUMPDEST PUSH1 0x0 PUSH1 0x1F NOT PUSH1 0x1F DUP4 ADD AND SWAP1 POP SWAP2 SWAP1 POP JUMP JUMPDEST PUSH32 0x66616C6C206261636B207761732063616C6C6564000000000000000000000000 PUSH1 0x0 DUP3 ADD MSTORE POP JUMP JUMPDEST PUSH2 0x622 DUP2 PUSH2 0x4BE JUMP JUMPDEST DUP2 EQ PUSH2 0x62D JUMPI PUSH1 0x0 DUP1 REVERT JUMPDEST POP JUMP INVALID LOG2 PUSH5 0x6970667358 0x22 SLT KECCAK256 0xCC NUMBER NOT 0x29 JUMPI MLOAD CREATE 0xC2 PUSH28 0xEA89FC4F70EFAE6F58AC479B8ADB18B498B9B581F0407F64736F6C63 NUMBER STOP ADDMOD SMOD STOP CALLER "
				},
				"gasEstimates": {
					"creation": {
						"codeDepositCost": "327600",
						"executionCost": "368",
						"totalCost": "327968"
					},
					"external": {
						"": "1931",
						"foo(string,uint256)": "infinite",
						"message()": "infinite",
						"x()": "2407"
					}
				},
				"methodIdentifiers": {
					"foo(string,uint256)": "24ccab8f",
					"message()": "e21f37ce",
					"x()": "0c55699c"
				}
			},
			"storageLayout": {
				"storage": [
					{
						"astId": 3,
						"contract": "Object Oriented Concepts/Call.sol:TestCall",
						"label": "message",
						"offset": 0,
						"slot": "0",
						"type": "t_string_storage"
					},
					{
						"astId": 5,
						"contract": "Object Oriented Concepts/Call.sol:TestCall",
						"label": "x",
						"offset": 0,
						"slot": "1",
						"type": "t_uint256"
					}
				],
				"types": {
					"t_string_storage": {
						"encoding": "bytes",
						"label": "string",
						"numberOfBytes": "32"
					},
					"t_uint256": {
						"encoding": "inplace",
						"label": "uint256",
						"numberOfBytes": "32"
					}
				}
			},
			"userdoc": {
				"kind": "user",
				"methods": {},
				"version": 1
			}
		}
	}
}