{
	"Object Oriented Concepts/Call.sol": {
		"Call": {
			"abi": [
				{
					"inputs": [
						{
							"internalType": "address",
							"name": "_test",
							"type": "address"
						}
					],
					"name": "CalldoesNotExist",
					"outputs": [],
					"stateMutability": "nonpayable",
					"type": "function"
				},
				{
					"inputs": [
						{
							"internalType": "address",
							"name": "_test",
							"type": "address"
						}
					],
					"name": "callFoo",
					"outputs": [],
					"stateMutability": "payable",
					"type": "function"
				},
				{
					"inputs": [],
					"name": "data",
					"outputs": [
						{
							"internalType": "bytes",
							"name": "",
							"type": "bytes"
						}
					],
					"stateMutability": "view",
					"type": "function"
				}
			],
			"devdoc": {
				"kind": "dev",
				"methods": {},
				"version": 1
			},
			"evm": {
				"assembly": "    /* \"Object Oriented Concepts/Call.sol\":427:923  contract Call {\r... */\n  mstore(0x40, 0x80)\n  callvalue\n  dup1\n  iszero\n  tag_1\n  jumpi\n  0x00\n  dup1\n  revert\ntag_1:\n  pop\n  dataSize(sub_0)\n  dup1\n  dataOffset(sub_0)\n  0x00\n  codecopy\n  0x00\n  return\nstop\n\nsub_0: assembly {\n        /* \"Object Oriented Concepts/Call.sol\":427:923  contract Call {\r... */\n      mstore(0x40, 0x80)\n      jumpi(tag_1, lt(calldatasize, 0x04))\n      shr(0xe0, calldataload(0x00))\n      dup1\n      0x6d7a7118\n      eq\n      tag_2\n      jumpi\n      dup1\n      0x73d4a13a\n      eq\n      tag_3\n      jumpi\n      dup1\n      0xedcbe76c\n      eq\n      tag_4\n      jumpi\n    tag_1:\n      0x00\n      dup1\n      revert\n        /* \"Object Oriented Concepts/Call.sol\":739:920  function CalldoesNotExist(address _test) external {\r... */\n    tag_2:\n      callvalue\n      dup1\n      iszero\n      tag_5\n      jumpi\n      0x00\n      dup1\n      revert\n    tag_5:\n      pop\n      tag_6\n      0x04\n      dup1\n      calldatasize\n      sub\n      dup2\n      add\n      swap1\n      tag_7\n      swap2\n      swap1\n      tag_8\n      jump\t// in\n    tag_7:\n      tag_9\n      jump\t// in\n    tag_6:\n      stop\n        /* \"Object Oriented Concepts/Call.sol\":448:465  bytes public data */\n    tag_3:\n      callvalue\n      dup1\n      iszero\n      tag_10\n      jumpi\n      0x00\n      dup1\n      revert\n    tag_10:\n      pop\n      tag_11\n      tag_12\n      jump\t// in\n    tag_11:\n      mload(0x40)\n      tag_13\n      swap2\n      swap1\n      tag_14\n      jump\t// in\n    tag_13:\n      mload(0x40)\n      dup1\n      swap2\n      sub\n      swap1\n      return\n        /* \"Object Oriented Concepts/Call.sol\":474:731  function callFoo(address _test) external payable{\r... */\n    tag_4:\n      tag_15\n      0x04\n      dup1\n      calldatasize\n      sub\n      dup2\n      add\n      swap1\n      tag_16\n      swap2\n      swap1\n      tag_8\n      jump\t// in\n    tag_16:\n      tag_17\n      jump\t// in\n    tag_15:\n      stop\n        /* \"Object Oriented Concepts/Call.sol\":739:920  function CalldoesNotExist(address _test) external {\r... */\n    tag_9:\n        /* \"Object Oriented Concepts/Call.sol\":801:813  bool success */\n      0x00\n        /* \"Object Oriented Concepts/Call.sol\":819:824  _test */\n      dup2\n        /* \"Object Oriented Concepts/Call.sol\":819:829  _test.call */\n      0xffffffffffffffffffffffffffffffffffffffff\n      and\n        /* \"Object Oriented Concepts/Call.sol\":830:869  abi.encodeWithSignature(\"doesNotExist\") */\n      add(0x24, mload(0x40))\n      mload(0x40)\n      0x20\n      dup2\n      dup4\n      sub\n      sub\n      dup2\n      mstore\n      swap1\n      0x40\n      mstore\n      and(not(0xffffffffffffffffffffffffffffffffffffffffffffffffffffffff), 0xe859cf6b00000000000000000000000000000000000000000000000000000000)\n      0x20\n      dup3\n      add\n      dup1\n      mload\n      0xffffffffffffffffffffffffffffffffffffffffffffffffffffffff\n      dup4\n      dup2\n      dup4\n      and\n      or\n      dup4\n      mstore\n      pop\n      pop\n      pop\n      pop\n        /* \"Object Oriented Concepts/Call.sol\":819:870  _test.call(abi.encodeWithSignature(\"doesNotExist\")) */\n      mload(0x40)\n      tag_19\n      swap2\n      swap1\n      tag_20\n      jump\t// in\n    tag_19:\n      0x00\n      mload(0x40)\n      dup1\n      dup4\n      sub\n      dup2\n      0x00\n      dup7\n      gas\n      call\n      swap2\n      pop\n      pop\n      returndatasize\n      dup1\n      0x00\n      dup2\n      eq\n      tag_23\n      jumpi\n      mload(0x40)\n      swap2\n      pop\n      and(add(returndatasize, 0x3f), not(0x1f))\n      dup3\n      add\n      0x40\n      mstore\n      returndatasize\n      dup3\n      mstore\n      returndatasize\n      0x00\n      0x20\n      dup5\n      add\n      returndatacopy\n      jump(tag_22)\n    tag_23:\n      0x60\n      swap2\n      pop\n    tag_22:\n      pop\n        /* \"Object Oriented Concepts/Call.sol\":800:870  (bool success, ) = _test.call(abi.encodeWithSignature(\"doesNotExist\")) */\n      pop\n      swap1\n      pop\n        /* \"Object Oriented Concepts/Call.sol\":889:896  success */\n      dup1\n        /* \"Object Oriented Concepts/Call.sol\":881:912  require(success, \"call failed\") */\n      tag_24\n      jumpi\n      mload(0x40)\n      0x08c379a000000000000000000000000000000000000000000000000000000000\n      dup2\n      mstore\n      0x04\n      add\n      tag_25\n      swap1\n      tag_26\n      jump\t// in\n    tag_25:\n      mload(0x40)\n      dup1\n      swap2\n      sub\n      swap1\n      revert\n    tag_24:\n        /* \"Object Oriented Concepts/Call.sol\":789:920  {\r... */\n      pop\n        /* \"Object Oriented Concepts/Call.sol\":739:920  function CalldoesNotExist(address _test) external {\r... */\n      pop\n      jump\t// out\n        /* \"Object Oriented Concepts/Call.sol\":448:465  bytes public data */\n    tag_12:\n      0x00\n      dup1\n      sload\n      tag_27\n      swap1\n      tag_28\n      jump\t// in\n    tag_27:\n      dup1\n      0x1f\n      add\n      0x20\n      dup1\n      swap2\n      div\n      mul\n      0x20\n      add\n      mload(0x40)\n      swap1\n      dup2\n      add\n      0x40\n      mstore\n      dup1\n      swap3\n      swap2\n      swap1\n      dup2\n      dup2\n      mstore\n      0x20\n      add\n      dup3\n      dup1\n      sload\n      tag_29\n      swap1\n      tag_28\n      jump\t// in\n    tag_29:\n      dup1\n      iszero\n      tag_30\n      jumpi\n      dup1\n      0x1f\n      lt\n      tag_31\n      jumpi\n      0x0100\n      dup1\n      dup4\n      sload\n      div\n      mul\n      dup4\n      mstore\n      swap2\n      0x20\n      add\n      swap2\n      jump(tag_30)\n    tag_31:\n      dup3\n      add\n      swap2\n      swap1\n      0x00\n      mstore\n      keccak256(0x00, 0x20)\n      swap1\n    tag_32:\n      dup2\n      sload\n      dup2\n      mstore\n      swap1\n      0x01\n      add\n      swap1\n      0x20\n      add\n      dup1\n      dup4\n      gt\n      tag_32\n      jumpi\n      dup3\n      swap1\n      sub\n      0x1f\n      and\n      dup3\n      add\n      swap2\n    tag_30:\n      pop\n      pop\n      pop\n      pop\n      pop\n      dup2\n      jump\t// out\n        /* \"Object Oriented Concepts/Call.sol\":474:731  function callFoo(address _test) external payable{\r... */\n    tag_17:\n        /* \"Object Oriented Concepts/Call.sol\":534:546  bool success */\n      0x00\n        /* \"Object Oriented Concepts/Call.sol\":548:566  bytes memory _data */\n      dup1\n        /* \"Object Oriented Concepts/Call.sol\":570:575  _test */\n      dup3\n        /* \"Object Oriented Concepts/Call.sol\":570:580  _test.call */\n      0xffffffffffffffffffffffffffffffffffffffff\n      and\n        /* \"Object Oriented Concepts/Call.sol\":588:591  111 */\n      0x6f\n        /* \"Object Oriented Concepts/Call.sol\":653:656  123 */\n      0x7b\n        /* \"Object Oriented Concepts/Call.sol\":593:657  abi.encodeWithSignature(\"foo(string, uint256)\", \"call foo\", 123) */\n      add(0x24, mload(0x40))\n      tag_34\n      swap2\n      swap1\n      tag_35\n      jump\t// in\n    tag_34:\n      mload(0x40)\n      0x20\n      dup2\n      dup4\n      sub\n      sub\n      dup2\n      mstore\n      swap1\n      0x40\n      mstore\n      and(not(0xffffffffffffffffffffffffffffffffffffffffffffffffffffffff), 0x2fae309d00000000000000000000000000000000000000000000000000000000)\n      0x20\n      dup3\n      add\n      dup1\n      mload\n      0xffffffffffffffffffffffffffffffffffffffffffffffffffffffff\n      dup4\n      dup2\n      dup4\n      and\n      or\n      dup4\n      mstore\n      pop\n      pop\n      pop\n      pop\n        /* \"Object Oriented Concepts/Call.sol\":570:658  _test.call{value: 111}(abi.encodeWithSignature(\"foo(string, uint256)\", \"call foo\", 123)) */\n      mload(0x40)\n      tag_36\n      swap2\n      swap1\n      tag_20\n      jump\t// in\n    tag_36:\n      0x00\n      mload(0x40)\n      dup1\n      dup4\n      sub\n      dup2\n      dup6\n      dup8\n      gas\n      call\n      swap3\n      pop\n      pop\n      pop\n      returndatasize\n      dup1\n      0x00\n      dup2\n      eq\n      tag_39\n      jumpi\n      mload(0x40)\n      swap2\n      pop\n      and(add(returndatasize, 0x3f), not(0x1f))\n      dup3\n      add\n      0x40\n      mstore\n      returndatasize\n      dup3\n      mstore\n      returndatasize\n      0x00\n      0x20\n      dup5\n      add\n      returndatacopy\n      jump(tag_38)\n    tag_39:\n      0x60\n      swap2\n      pop\n    tag_38:\n      pop\n        /* \"Object Oriented Concepts/Call.sol\":533:658  (bool success, bytes memory _data) = _test.call{value: 111}(abi.encodeWithSignature(\"foo(string, uint256)\", \"call foo\", 123)) */\n      swap2\n      pop\n      swap2\n      pop\n        /* \"Object Oriented Concepts/Call.sol\":677:684  success */\n      dup2\n        /* \"Object Oriented Concepts/Call.sol\":669:700  require(success, \"call failed\") */\n      tag_40\n      jumpi\n      mload(0x40)\n      0x08c379a000000000000000000000000000000000000000000000000000000000\n      dup2\n      mstore\n      0x04\n      add\n      tag_41\n      swap1\n      tag_26\n      jump\t// in\n    tag_41:\n      mload(0x40)\n      dup1\n      swap2\n      sub\n      swap1\n      revert\n    tag_40:\n        /* \"Object Oriented Concepts/Call.sol\":718:723  _data */\n      dup1\n        /* \"Object Oriented Concepts/Call.sol\":711:715  data */\n      0x00\n        /* \"Object Oriented Concepts/Call.sol\":711:723  data = _data */\n      swap1\n      dup1\n      mload\n      swap1\n      0x20\n      add\n      swap1\n      tag_42\n      swap3\n      swap2\n      swap1\n      tag_43\n      jump\t// in\n    tag_42:\n      pop\n        /* \"Object Oriented Concepts/Call.sol\":522:731  {\r... */\n      pop\n      pop\n        /* \"Object Oriented Concepts/Call.sol\":474:731  function callFoo(address _test) external payable{\r... */\n      pop\n      jump\t// out\n    tag_43:\n      dup3\n      dup1\n      sload\n      tag_44\n      swap1\n      tag_28\n      jump\t// in\n    tag_44:\n      swap1\n      0x00\n      mstore\n      keccak256(0x00, 0x20)\n      swap1\n      0x1f\n      add\n      0x20\n      swap1\n      div\n      dup2\n      add\n      swap3\n      dup3\n      tag_46\n      jumpi\n      0x00\n      dup6\n      sstore\n      jump(tag_45)\n    tag_46:\n      dup3\n      0x1f\n      lt\n      tag_47\n      jumpi\n      dup1\n      mload\n      not(0xff)\n      and\n      dup4\n      dup1\n      add\n      or\n      dup6\n      sstore\n      jump(tag_45)\n    tag_47:\n      dup3\n      dup1\n      add\n      0x01\n      add\n      dup6\n      sstore\n      dup3\n      iszero\n      tag_45\n      jumpi\n      swap2\n      dup3\n      add\n    tag_48:\n      dup3\n      dup2\n      gt\n      iszero\n      tag_49\n      jumpi\n      dup3\n      mload\n      dup3\n      sstore\n      swap2\n      0x20\n      add\n      swap2\n      swap1\n      0x01\n      add\n      swap1\n      jump(tag_48)\n    tag_49:\n    tag_45:\n      pop\n      swap1\n      pop\n      tag_50\n      swap2\n      swap1\n      tag_51\n      jump\t// in\n    tag_50:\n      pop\n      swap1\n      jump\t// out\n    tag_51:\n    tag_52:\n      dup1\n      dup3\n      gt\n      iszero\n      tag_53\n      jumpi\n      0x00\n      dup2\n      0x00\n      swap1\n      sstore\n      pop\n      0x01\n      add\n      jump(tag_52)\n    tag_53:\n      pop\n      swap1\n      jump\t// out\n        /* \"#utility.yul\":7:146   */\n    tag_55:\n        /* \"#utility.yul\":53:58   */\n      0x00\n        /* \"#utility.yul\":91:97   */\n      dup2\n        /* \"#utility.yul\":78:98   */\n      calldataload\n        /* \"#utility.yul\":69:98   */\n      swap1\n      pop\n        /* \"#utility.yul\":107:140   */\n      tag_57\n        /* \"#utility.yul\":134:139   */\n      dup2\n        /* \"#utility.yul\":107:140   */\n      tag_58\n      jump\t// in\n    tag_57:\n        /* \"#utility.yul\":7:146   */\n      swap3\n      swap2\n      pop\n      pop\n      jump\t// out\n        /* \"#utility.yul\":152:481   */\n    tag_8:\n        /* \"#utility.yul\":211:217   */\n      0x00\n        /* \"#utility.yul\":260:262   */\n      0x20\n        /* \"#utility.yul\":248:257   */\n      dup3\n        /* \"#utility.yul\":239:246   */\n      dup5\n        /* \"#utility.yul\":235:258   */\n      sub\n        /* \"#utility.yul\":231:263   */\n      slt\n        /* \"#utility.yul\":228:347   */\n      iszero\n      tag_60\n      jumpi\n        /* \"#utility.yul\":266:345   */\n      tag_61\n      tag_62\n      jump\t// in\n    tag_61:\n        /* \"#utility.yul\":228:347   */\n    tag_60:\n        /* \"#utility.yul\":386:387   */\n      0x00\n        /* \"#utility.yul\":411:464   */\n      tag_63\n        /* \"#utility.yul\":456:463   */\n      dup5\n        /* \"#utility.yul\":447:453   */\n      dup3\n        /* \"#utility.yul\":436:445   */\n      dup6\n        /* \"#utility.yul\":432:454   */\n      add\n        /* \"#utility.yul\":411:464   */\n      tag_55\n      jump\t// in\n    tag_63:\n        /* \"#utility.yul\":401:464   */\n      swap2\n      pop\n        /* \"#utility.yul\":357:474   */\n      pop\n        /* \"#utility.yul\":152:481   */\n      swap3\n      swap2\n      pop\n      pop\n      jump\t// out\n        /* \"#utility.yul\":487:847   */\n    tag_64:\n        /* \"#utility.yul\":573:576   */\n      0x00\n        /* \"#utility.yul\":601:639   */\n      tag_66\n        /* \"#utility.yul\":633:638   */\n      dup3\n        /* \"#utility.yul\":601:639   */\n      tag_67\n      jump\t// in\n    tag_66:\n        /* \"#utility.yul\":655:725   */\n      tag_68\n        /* \"#utility.yul\":718:724   */\n      dup2\n        /* \"#utility.yul\":713:716   */\n      dup6\n        /* \"#utility.yul\":655:725   */\n      tag_69\n      jump\t// in\n    tag_68:\n        /* \"#utility.yul\":648:725   */\n      swap4\n      pop\n        /* \"#utility.yul\":734:786   */\n      tag_70\n        /* \"#utility.yul\":779:785   */\n      dup2\n        /* \"#utility.yul\":774:777   */\n      dup6\n        /* \"#utility.yul\":767:771   */\n      0x20\n        /* \"#utility.yul\":760:765   */\n      dup7\n        /* \"#utility.yul\":756:772   */\n      add\n        /* \"#utility.yul\":734:786   */\n      tag_71\n      jump\t// in\n    tag_70:\n        /* \"#utility.yul\":811:840   */\n      tag_72\n        /* \"#utility.yul\":833:839   */\n      dup2\n        /* \"#utility.yul\":811:840   */\n      tag_73\n      jump\t// in\n    tag_72:\n        /* \"#utility.yul\":806:809   */\n      dup5\n        /* \"#utility.yul\":802:841   */\n      add\n        /* \"#utility.yul\":795:841   */\n      swap2\n      pop\n        /* \"#utility.yul\":577:847   */\n      pop\n        /* \"#utility.yul\":487:847   */\n      swap3\n      swap2\n      pop\n      pop\n      jump\t// out\n        /* \"#utility.yul\":853:1226   */\n    tag_74:\n        /* \"#utility.yul\":957:960   */\n      0x00\n        /* \"#utility.yul\":985:1023   */\n      tag_76\n        /* \"#utility.yul\":1017:1022   */\n      dup3\n        /* \"#utility.yul\":985:1023   */\n      tag_67\n      jump\t// in\n    tag_76:\n        /* \"#utility.yul\":1039:1127   */\n      tag_77\n        /* \"#utility.yul\":1120:1126   */\n      dup2\n        /* \"#utility.yul\":1115:1118   */\n      dup6\n        /* \"#utility.yul\":1039:1127   */\n      tag_78\n      jump\t// in\n    tag_77:\n        /* \"#utility.yul\":1032:1127   */\n      swap4\n      pop\n        /* \"#utility.yul\":1136:1188   */\n      tag_79\n        /* \"#utility.yul\":1181:1187   */\n      dup2\n        /* \"#utility.yul\":1176:1179   */\n      dup6\n        /* \"#utility.yul\":1169:1173   */\n      0x20\n        /* \"#utility.yul\":1162:1167   */\n      dup7\n        /* \"#utility.yul\":1158:1174   */\n      add\n        /* \"#utility.yul\":1136:1188   */\n      tag_71\n      jump\t// in\n    tag_79:\n        /* \"#utility.yul\":1213:1219   */\n      dup1\n        /* \"#utility.yul\":1208:1211   */\n      dup5\n        /* \"#utility.yul\":1204:1220   */\n      add\n        /* \"#utility.yul\":1197:1220   */\n      swap2\n      pop\n        /* \"#utility.yul\":961:1226   */\n      pop\n        /* \"#utility.yul\":853:1226   */\n      swap3\n      swap2\n      pop\n      pop\n      jump\t// out\n        /* \"#utility.yul\":1232:1379   */\n    tag_80:\n        /* \"#utility.yul\":1327:1372   */\n      tag_82\n        /* \"#utility.yul\":1366:1371   */\n      dup2\n        /* \"#utility.yul\":1327:1372   */\n      tag_83\n      jump\t// in\n    tag_82:\n        /* \"#utility.yul\":1322:1325   */\n      dup3\n        /* \"#utility.yul\":1315:1373   */\n      mstore\n        /* \"#utility.yul\":1232:1379   */\n      pop\n      pop\n      jump\t// out\n        /* \"#utility.yul\":1385:1750   */\n    tag_84:\n        /* \"#utility.yul\":1527:1530   */\n      0x00\n        /* \"#utility.yul\":1548:1614   */\n      tag_86\n        /* \"#utility.yul\":1612:1613   */\n      0x08\n        /* \"#utility.yul\":1607:1610   */\n      dup4\n        /* \"#utility.yul\":1548:1614   */\n      tag_87\n      jump\t// in\n    tag_86:\n        /* \"#utility.yul\":1541:1614   */\n      swap2\n      pop\n        /* \"#utility.yul\":1623:1716   */\n      tag_88\n        /* \"#utility.yul\":1712:1715   */\n      dup3\n        /* \"#utility.yul\":1623:1716   */\n      tag_89\n      jump\t// in\n    tag_88:\n        /* \"#utility.yul\":1741:1743   */\n      0x20\n        /* \"#utility.yul\":1736:1739   */\n      dup3\n        /* \"#utility.yul\":1732:1744   */\n      add\n        /* \"#utility.yul\":1725:1744   */\n      swap1\n      pop\n        /* \"#utility.yul\":1385:1750   */\n      swap2\n      swap1\n      pop\n      jump\t// out\n        /* \"#utility.yul\":1756:2122   */\n    tag_90:\n        /* \"#utility.yul\":1898:1901   */\n      0x00\n        /* \"#utility.yul\":1919:1986   */\n      tag_92\n        /* \"#utility.yul\":1983:1985   */\n      0x0b\n        /* \"#utility.yul\":1978:1981   */\n      dup4\n        /* \"#utility.yul\":1919:1986   */\n      tag_87\n      jump\t// in\n    tag_92:\n        /* \"#utility.yul\":1912:1986   */\n      swap2\n      pop\n        /* \"#utility.yul\":1995:2088   */\n      tag_93\n        /* \"#utility.yul\":2084:2087   */\n      dup3\n        /* \"#utility.yul\":1995:2088   */\n      tag_94\n      jump\t// in\n    tag_93:\n        /* \"#utility.yul\":2113:2115   */\n      0x20\n        /* \"#utility.yul\":2108:2111   */\n      dup3\n        /* \"#utility.yul\":2104:2116   */\n      add\n        /* \"#utility.yul\":2097:2116   */\n      swap1\n      pop\n        /* \"#utility.yul\":1756:2122   */\n      swap2\n      swap1\n      pop\n      jump\t// out\n        /* \"#utility.yul\":2128:2399   */\n    tag_20:\n        /* \"#utility.yul\":2258:2261   */\n      0x00\n        /* \"#utility.yul\":2280:2373   */\n      tag_96\n        /* \"#utility.yul\":2369:2372   */\n      dup3\n        /* \"#utility.yul\":2360:2366   */\n      dup5\n        /* \"#utility.yul\":2280:2373   */\n      tag_74\n      jump\t// in\n    tag_96:\n        /* \"#utility.yul\":2273:2373   */\n      swap2\n      pop\n        /* \"#utility.yul\":2390:2393   */\n      dup2\n        /* \"#utility.yul\":2383:2393   */\n      swap1\n      pop\n        /* \"#utility.yul\":2128:2399   */\n      swap3\n      swap2\n      pop\n      pop\n      jump\t// out\n        /* \"#utility.yul\":2405:2714   */\n    tag_14:\n        /* \"#utility.yul\":2516:2520   */\n      0x00\n        /* \"#utility.yul\":2554:2556   */\n      0x20\n        /* \"#utility.yul\":2543:2552   */\n      dup3\n        /* \"#utility.yul\":2539:2557   */\n      add\n        /* \"#utility.yul\":2531:2557   */\n      swap1\n      pop\n        /* \"#utility.yul\":2603:2612   */\n      dup2\n        /* \"#utility.yul\":2597:2601   */\n      dup2\n        /* \"#utility.yul\":2593:2613   */\n      sub\n        /* \"#utility.yul\":2589:2590   */\n      0x00\n        /* \"#utility.yul\":2578:2587   */\n      dup4\n        /* \"#utility.yul\":2574:2591   */\n      add\n        /* \"#utility.yul\":2567:2614   */\n      mstore\n        /* \"#utility.yul\":2631:2707   */\n      tag_98\n        /* \"#utility.yul\":2702:2706   */\n      dup2\n        /* \"#utility.yul\":2693:2699   */\n      dup5\n        /* \"#utility.yul\":2631:2707   */\n      tag_64\n      jump\t// in\n    tag_98:\n        /* \"#utility.yul\":2623:2707   */\n      swap1\n      pop\n        /* \"#utility.yul\":2405:2714   */\n      swap3\n      swap2\n      pop\n      pop\n      jump\t// out\n        /* \"#utility.yul\":2720:3265   */\n    tag_35:\n        /* \"#utility.yul\":2922:2926   */\n      0x00\n        /* \"#utility.yul\":2960:2962   */\n      0x40\n        /* \"#utility.yul\":2949:2958   */\n      dup3\n        /* \"#utility.yul\":2945:2963   */\n      add\n        /* \"#utility.yul\":2937:2963   */\n      swap1\n      pop\n        /* \"#utility.yul\":3009:3018   */\n      dup2\n        /* \"#utility.yul\":3003:3007   */\n      dup2\n        /* \"#utility.yul\":2999:3019   */\n      sub\n        /* \"#utility.yul\":2995:2996   */\n      0x00\n        /* \"#utility.yul\":2984:2993   */\n      dup4\n        /* \"#utility.yul\":2980:2997   */\n      add\n        /* \"#utility.yul\":2973:3020   */\n      mstore\n        /* \"#utility.yul\":3037:3168   */\n      tag_100\n        /* \"#utility.yul\":3163:3167   */\n      dup2\n        /* \"#utility.yul\":3037:3168   */\n      tag_84\n      jump\t// in\n    tag_100:\n        /* \"#utility.yul\":3029:3168   */\n      swap1\n      pop\n        /* \"#utility.yul\":3178:3258   */\n      tag_101\n        /* \"#utility.yul\":3254:3256   */\n      0x20\n        /* \"#utility.yul\":3243:3252   */\n      dup4\n        /* \"#utility.yul\":3239:3257   */\n      add\n        /* \"#utility.yul\":3230:3236   */\n      dup5\n        /* \"#utility.yul\":3178:3258   */\n      tag_80\n      jump\t// in\n    tag_101:\n        /* \"#utility.yul\":2720:3265   */\n      swap3\n      swap2\n      pop\n      pop\n      jump\t// out\n        /* \"#utility.yul\":3271:3690   */\n    tag_26:\n        /* \"#utility.yul\":3437:3441   */\n      0x00\n        /* \"#utility.yul\":3475:3477   */\n      0x20\n        /* \"#utility.yul\":3464:3473   */\n      dup3\n        /* \"#utility.yul\":3460:3478   */\n      add\n        /* \"#utility.yul\":3452:3478   */\n      swap1\n      pop\n        /* \"#utility.yul\":3524:3533   */\n      dup2\n        /* \"#utility.yul\":3518:3522   */\n      dup2\n        /* \"#utility.yul\":3514:3534   */\n      sub\n        /* \"#utility.yul\":3510:3511   */\n      0x00\n        /* \"#utility.yul\":3499:3508   */\n      dup4\n        /* \"#utility.yul\":3495:3512   */\n      add\n        /* \"#utility.yul\":3488:3535   */\n      mstore\n        /* \"#utility.yul\":3552:3683   */\n      tag_103\n        /* \"#utility.yul\":3678:3682   */\n      dup2\n        /* \"#utility.yul\":3552:3683   */\n      tag_90\n      jump\t// in\n    tag_103:\n        /* \"#utility.yul\":3544:3683   */\n      swap1\n      pop\n        /* \"#utility.yul\":3271:3690   */\n      swap2\n      swap1\n      pop\n      jump\t// out\n        /* \"#utility.yul\":3777:3875   */\n    tag_67:\n        /* \"#utility.yul\":3828:3834   */\n      0x00\n        /* \"#utility.yul\":3862:3867   */\n      dup2\n        /* \"#utility.yul\":3856:3868   */\n      mload\n        /* \"#utility.yul\":3846:3868   */\n      swap1\n      pop\n        /* \"#utility.yul\":3777:3875   */\n      swap2\n      swap1\n      pop\n      jump\t// out\n        /* \"#utility.yul\":3881:4049   */\n    tag_69:\n        /* \"#utility.yul\":3964:3975   */\n      0x00\n        /* \"#utility.yul\":3998:4004   */\n      dup3\n        /* \"#utility.yul\":3993:3996   */\n      dup3\n        /* \"#utility.yul\":3986:4005   */\n      mstore\n        /* \"#utility.yul\":4038:4042   */\n      0x20\n        /* \"#utility.yul\":4033:4036   */\n      dup3\n        /* \"#utility.yul\":4029:4043   */\n      add\n        /* \"#utility.yul\":4014:4043   */\n      swap1\n      pop\n        /* \"#utility.yul\":3881:4049   */\n      swap3\n      swap2\n      pop\n      pop\n      jump\t// out\n        /* \"#utility.yul\":4055:4202   */\n    tag_78:\n        /* \"#utility.yul\":4156:4167   */\n      0x00\n        /* \"#utility.yul\":4193:4196   */\n      dup2\n        /* \"#utility.yul\":4178:4196   */\n      swap1\n      pop\n        /* \"#utility.yul\":4055:4202   */\n      swap3\n      swap2\n      pop\n      pop\n      jump\t// out\n        /* \"#utility.yul\":4208:4377   */\n    tag_87:\n        /* \"#utility.yul\":4292:4303   */\n      0x00\n        /* \"#utility.yul\":4326:4332   */\n      dup3\n        /* \"#utility.yul\":4321:4324   */\n      dup3\n        /* \"#utility.yul\":4314:4333   */\n      mstore\n        /* \"#utility.yul\":4366:4370   */\n      0x20\n        /* \"#utility.yul\":4361:4364   */\n      dup3\n        /* \"#utility.yul\":4357:4371   */\n      add\n        /* \"#utility.yul\":4342:4371   */\n      swap1\n      pop\n        /* \"#utility.yul\":4208:4377   */\n      swap3\n      swap2\n      pop\n      pop\n      jump\t// out\n        /* \"#utility.yul\":4383:4479   */\n    tag_110:\n        /* \"#utility.yul\":4420:4427   */\n      0x00\n        /* \"#utility.yul\":4449:4473   */\n      tag_112\n        /* \"#utility.yul\":4467:4472   */\n      dup3\n        /* \"#utility.yul\":4449:4473   */\n      tag_113\n      jump\t// in\n    tag_112:\n        /* \"#utility.yul\":4438:4473   */\n      swap1\n      pop\n        /* \"#utility.yul\":4383:4479   */\n      swap2\n      swap1\n      pop\n      jump\t// out\n        /* \"#utility.yul\":4485:4611   */\n    tag_113:\n        /* \"#utility.yul\":4522:4529   */\n      0x00\n        /* \"#utility.yul\":4562:4604   */\n      0xffffffffffffffffffffffffffffffffffffffff\n        /* \"#utility.yul\":4555:4560   */\n      dup3\n        /* \"#utility.yul\":4551:4605   */\n      and\n        /* \"#utility.yul\":4540:4605   */\n      swap1\n      pop\n        /* \"#utility.yul\":4485:4611   */\n      swap2\n      swap1\n      pop\n      jump\t// out\n        /* \"#utility.yul\":4617:4703   */\n    tag_115:\n        /* \"#utility.yul\":4652:4659   */\n      0x00\n        /* \"#utility.yul\":4692:4696   */\n      0xff\n        /* \"#utility.yul\":4685:4690   */\n      dup3\n        /* \"#utility.yul\":4681:4697   */\n      and\n        /* \"#utility.yul\":4670:4697   */\n      swap1\n      pop\n        /* \"#utility.yul\":4617:4703   */\n      swap2\n      swap1\n      pop\n      jump\t// out\n        /* \"#utility.yul\":4709:4828   */\n    tag_83:\n        /* \"#utility.yul\":4767:4776   */\n      0x00\n        /* \"#utility.yul\":4800:4822   */\n      tag_118\n        /* \"#utility.yul\":4816:4821   */\n      dup3\n        /* \"#utility.yul\":4800:4822   */\n      tag_115\n      jump\t// in\n    tag_118:\n        /* \"#utility.yul\":4787:4822   */\n      swap1\n      pop\n        /* \"#utility.yul\":4709:4828   */\n      swap2\n      swap1\n      pop\n      jump\t// out\n        /* \"#utility.yul\":4834:5141   */\n    tag_71:\n        /* \"#utility.yul\":4902:4903   */\n      0x00\n        /* \"#utility.yul\":4912:5025   */\n    tag_120:\n        /* \"#utility.yul\":4926:4932   */\n      dup4\n        /* \"#utility.yul\":4923:4924   */\n      dup2\n        /* \"#utility.yul\":4920:4933   */\n      lt\n        /* \"#utility.yul\":4912:5025   */\n      iszero\n      tag_122\n      jumpi\n        /* \"#utility.yul\":5011:5012   */\n      dup1\n        /* \"#utility.yul\":5006:5009   */\n      dup3\n        /* \"#utility.yul\":5002:5013   */\n      add\n        /* \"#utility.yul\":4996:5014   */\n      mload\n        /* \"#utility.yul\":4992:4993   */\n      dup2\n        /* \"#utility.yul\":4987:4990   */\n      dup5\n        /* \"#utility.yul\":4983:4994   */\n      add\n        /* \"#utility.yul\":4976:5015   */\n      mstore\n        /* \"#utility.yul\":4948:4950   */\n      0x20\n        /* \"#utility.yul\":4945:4946   */\n      dup2\n        /* \"#utility.yul\":4941:4951   */\n      add\n        /* \"#utility.yul\":4936:4951   */\n      swap1\n      pop\n        /* \"#utility.yul\":4912:5025   */\n      jump(tag_120)\n    tag_122:\n        /* \"#utility.yul\":5043:5049   */\n      dup4\n        /* \"#utility.yul\":5040:5041   */\n      dup2\n        /* \"#utility.yul\":5037:5050   */\n      gt\n        /* \"#utility.yul\":5034:5135   */\n      iszero\n      tag_123\n      jumpi\n        /* \"#utility.yul\":5123:5124   */\n      0x00\n        /* \"#utility.yul\":5114:5120   */\n      dup5\n        /* \"#utility.yul\":5109:5112   */\n      dup5\n        /* \"#utility.yul\":5105:5121   */\n      add\n        /* \"#utility.yul\":5098:5125   */\n      mstore\n        /* \"#utility.yul\":5034:5135   */\n    tag_123:\n        /* \"#utility.yul\":4883:5141   */\n      pop\n        /* \"#utility.yul\":4834:5141   */\n      pop\n      pop\n      pop\n      jump\t// out\n        /* \"#utility.yul\":5147:5467   */\n    tag_28:\n        /* \"#utility.yul\":5191:5197   */\n      0x00\n        /* \"#utility.yul\":5228:5229   */\n      0x02\n        /* \"#utility.yul\":5222:5226   */\n      dup3\n        /* \"#utility.yul\":5218:5230   */\n      div\n        /* \"#utility.yul\":5208:5230   */\n      swap1\n      pop\n        /* \"#utility.yul\":5275:5276   */\n      0x01\n        /* \"#utility.yul\":5269:5273   */\n      dup3\n        /* \"#utility.yul\":5265:5277   */\n      and\n        /* \"#utility.yul\":5296:5314   */\n      dup1\n        /* \"#utility.yul\":5286:5367   */\n      tag_125\n      jumpi\n        /* \"#utility.yul\":5352:5356   */\n      0x7f\n        /* \"#utility.yul\":5344:5350   */\n      dup3\n        /* \"#utility.yul\":5340:5357   */\n      and\n        /* \"#utility.yul\":5330:5357   */\n      swap2\n      pop\n        /* \"#utility.yul\":5286:5367   */\n    tag_125:\n        /* \"#utility.yul\":5414:5416   */\n      0x20\n        /* \"#utility.yul\":5406:5412   */\n      dup3\n        /* \"#utility.yul\":5403:5417   */\n      lt\n        /* \"#utility.yul\":5383:5401   */\n      dup2\n        /* \"#utility.yul\":5380:5418   */\n      eq\n        /* \"#utility.yul\":5377:5461   */\n      iszero\n      tag_126\n      jumpi\n        /* \"#utility.yul\":5433:5451   */\n      tag_127\n      tag_128\n      jump\t// in\n    tag_127:\n        /* \"#utility.yul\":5377:5461   */\n    tag_126:\n        /* \"#utility.yul\":5198:5467   */\n      pop\n        /* \"#utility.yul\":5147:5467   */\n      swap2\n      swap1\n      pop\n      jump\t// out\n        /* \"#utility.yul\":5473:5653   */\n    tag_128:\n        /* \"#utility.yul\":5521:5598   */\n      0x4e487b7100000000000000000000000000000000000000000000000000000000\n        /* \"#utility.yul\":5518:5519   */\n      0x00\n        /* \"#utility.yul\":5511:5599   */\n      mstore\n        /* \"#utility.yul\":5618:5622   */\n      0x22\n        /* \"#utility.yul\":5615:5616   */\n      0x04\n        /* \"#utility.yul\":5608:5623   */\n      mstore\n        /* \"#utility.yul\":5642:5646   */\n      0x24\n        /* \"#utility.yul\":5639:5640   */\n      0x00\n        /* \"#utility.yul\":5632:5647   */\n      revert\n        /* \"#utility.yul\":5782:5899   */\n    tag_62:\n        /* \"#utility.yul\":5891:5892   */\n      0x00\n        /* \"#utility.yul\":5888:5889   */\n      dup1\n        /* \"#utility.yul\":5881:5893   */\n      revert\n        /* \"#utility.yul\":5905:6007   */\n    tag_73:\n        /* \"#utility.yul\":5946:5952   */\n      0x00\n        /* \"#utility.yul\":5997:5999   */\n      0x1f\n        /* \"#utility.yul\":5993:6000   */\n      not\n        /* \"#utility.yul\":5988:5990   */\n      0x1f\n        /* \"#utility.yul\":5981:5986   */\n      dup4\n        /* \"#utility.yul\":5977:5991   */\n      add\n        /* \"#utility.yul\":5973:6001   */\n      and\n        /* \"#utility.yul\":5963:6001   */\n      swap1\n      pop\n        /* \"#utility.yul\":5905:6007   */\n      swap2\n      swap1\n      pop\n      jump\t// out\n        /* \"#utility.yul\":6013:6171   */\n    tag_89:\n        /* \"#utility.yul\":6153:6163   */\n      0x63616c6c20666f6f000000000000000000000000000000000000000000000000\n        /* \"#utility.yul\":6149:6150   */\n      0x00\n        /* \"#utility.yul\":6141:6147   */\n      dup3\n        /* \"#utility.yul\":6137:6151   */\n      add\n        /* \"#utility.yul\":6130:6164   */\n      mstore\n        /* \"#utility.yul\":6013:6171   */\n      pop\n      jump\t// out\n        /* \"#utility.yul\":6177:6338   */\n    tag_94:\n        /* \"#utility.yul\":6317:6330   */\n      0x63616c6c206661696c6564000000000000000000000000000000000000000000\n        /* \"#utility.yul\":6313:6314   */\n      0x00\n        /* \"#utility.yul\":6305:6311   */\n      dup3\n        /* \"#utility.yul\":6301:6315   */\n      add\n        /* \"#utility.yul\":6294:6331   */\n      mstore\n        /* \"#utility.yul\":6177:6338   */\n      pop\n      jump\t// out\n        /* \"#utility.yul\":6344:6466   */\n    tag_58:\n        /* \"#utility.yul\":6417:6441   */\n      tag_137\n        /* \"#utility.yul\":6435:6440   */\n      dup2\n        /* \"#utility.yul\":6417:6441   */\n      tag_110\n      jump\t// in\n    tag_137:\n        /* \"#utility.yul\":6410:6415   */\n      dup2\n        /* \"#utility.yul\":6407:6442   */\n      eq\n        /* \"#utility.yul\":6397:6460   */\n      tag_138\n      jumpi\n        /* \"#utility.yul\":6456:6457   */\n      0x00\n        /* \"#utility.yul\":6453:6454   */\n      dup1\n        /* \"#utility.yul\":6446:6458   */\n      revert\n        /* \"#utility.yul\":6397:6460   */\n    tag_138:\n        /* \"#utility.yul\":6344:6466   */\n      pop\n      jump\t// out\n\n    auxdata: 0xa2646970667358221220a278187ff339137ba3a12dda825d7deb9d4647823453df6e281f5cba8a49454264736f6c63430008070033\n}\n",
				"bytecode": {
					"linkReferences": {},
					"object": "608060405234801561001057600080fd5b506107c2806100206000396000f3fe6080604052600436106100345760003560e01c80636d7a71181461003957806373d4a13a14610062578063edcbe76c1461008d575b600080fd5b34801561004557600080fd5b50610060600480360381019061005b919061047d565b6100a9565b005b34801561006e57600080fd5b506100776101dc565b6040516100849190610580565b60405180910390f35b6100a760048036038101906100a2919061047d565b61026a565b005b60008173ffffffffffffffffffffffffffffffffffffffff166040516024016040516020818303038152906040527fe859cf6b000000000000000000000000000000000000000000000000000000007bffffffffffffffffffffffffffffffffffffffffffffffffffffffff19166020820180517bffffffffffffffffffffffffffffffffffffffffffffffffffffffff83818316178352505050506040516101529190610569565b6000604051808303816000865af19150503d806000811461018f576040519150601f19603f3d011682016040523d82523d6000602084013e610194565b606091505b50509050806101d8576040517f08c379a00000000000000000000000000000000000000000000000000000000081526004016101cf906105d0565b60405180910390fd5b5050565b600080546101e9906106ac565b80601f0160208091040260200160405190810160405280929190818152602001828054610215906106ac565b80156102625780601f1061023757610100808354040283529160200191610262565b820191906000526020600020905b81548152906001019060200180831161024557829003601f168201915b505050505081565b6000808273ffffffffffffffffffffffffffffffffffffffff16606f607b60405160240161029891906105a2565b6040516020818303038152906040527f2fae309d000000000000000000000000000000000000000000000000000000007bffffffffffffffffffffffffffffffffffffffffffffffffffffffff19166020820180517bffffffffffffffffffffffffffffffffffffffffffffffffffffffff83818316178352505050506040516103229190610569565b60006040518083038185875af1925050503d806000811461035f576040519150601f19603f3d011682016040523d82523d6000602084013e610364565b606091505b5091509150816103a9576040517f08c379a00000000000000000000000000000000000000000000000000000000081526004016103a0906105d0565b60405180910390fd5b80600090805190602001906103bf9291906103c5565b50505050565b8280546103d1906106ac565b90600052602060002090601f0160209004810192826103f3576000855561043a565b82601f1061040c57805160ff191683800117855561043a565b8280016001018555821561043a579182015b8281111561043957825182559160200191906001019061041e565b5b509050610447919061044b565b5090565b5b8082111561046457600081600090555060010161044c565b5090565b60008135905061047781610775565b92915050565b6000602082840312156104935761049261070d565b5b60006104a184828501610468565b91505092915050565b60006104b5826105f0565b6104bf81856105fb565b93506104cf818560208601610679565b6104d881610712565b840191505092915050565b60006104ee826105f0565b6104f8818561060c565b9350610508818560208601610679565b80840191505092915050565b61051d81610667565b82525050565b6000610530600883610617565b915061053b82610723565b602082019050919050565b6000610553600b83610617565b915061055e8261074c565b602082019050919050565b600061057582846104e3565b915081905092915050565b6000602082019050818103600083015261059a81846104aa565b905092915050565b600060408201905081810360008301526105bb81610523565b90506105ca6020830184610514565b92915050565b600060208201905081810360008301526105e981610546565b9050919050565b600081519050919050565b600082825260208201905092915050565b600081905092915050565b600082825260208201905092915050565b60006106338261063a565b9050919050565b600073ffffffffffffffffffffffffffffffffffffffff82169050919050565b600060ff82169050919050565b60006106728261065a565b9050919050565b60005b8381101561069757808201518184015260208101905061067c565b838111156106a6576000848401525b50505050565b600060028204905060018216806106c457607f821691505b602082108114156106d8576106d76106de565b5b50919050565b7f4e487b7100000000000000000000000000000000000000000000000000000000600052602260045260246000fd5b600080fd5b6000601f19601f8301169050919050565b7f63616c6c20666f6f000000000000000000000000000000000000000000000000600082015250565b7f63616c6c206661696c6564000000000000000000000000000000000000000000600082015250565b61077e81610628565b811461078957600080fd5b5056fea2646970667358221220a278187ff339137ba3a12dda825d7deb9d4647823453df6e281f5cba8a49454264736f6c63430008070033",
					"opcodes": "PUSH1 0x80 PUSH1 0x40 MSTORE CALLVALUE DUP1 ISZERO PUSH2 0x10 JUMPI PUSH1 0x0 DUP1 REVERT JUMPDEST POP PUSH2 0x7C2 DUP1 PUSH2 0x20 PUSH1 0x0 CODECOPY PUSH1 0x0 RETURN INVALID PUSH1 0x80 PUSH1 0x40 MSTORE PUSH1 0x4 CALLDATASIZE LT PUSH2 0x34 JUMPI PUSH1 0x0 CALLDATALOAD PUSH1 0xE0 SHR DUP1 PUSH4 0x6D7A7118 EQ PUSH2 0x39 JUMPI DUP1 PUSH4 0x73D4A13A EQ PUSH2 0x62 JUMPI DUP1 PUSH4 0xEDCBE76C EQ PUSH2 0x8D JUMPI JUMPDEST PUSH1 0x0 DUP1 REVERT JUMPDEST CALLVALUE DUP1 ISZERO PUSH2 0x45 JUMPI PUSH1 0x0 DUP1 REVERT JUMPDEST POP PUSH2 0x60 PUSH1 0x4 DUP1 CALLDATASIZE SUB DUP2 ADD SWAP1 PUSH2 0x5B SWAP2 SWAP1 PUSH2 0x47D JUMP JUMPDEST PUSH2 0xA9 JUMP JUMPDEST STOP JUMPDEST CALLVALUE DUP1 ISZERO PUSH2 0x6E JUMPI PUSH1 0x0 DUP1 REVERT JUMPDEST POP PUSH2 0x77 PUSH2 0x1DC JUMP JUMPDEST PUSH1 0x40 MLOAD PUSH2 0x84 SWAP2 SWAP1 PUSH2 0x580 JUMP JUMPDEST PUSH1 0x40 MLOAD DUP1 SWAP2 SUB SWAP1 RETURN JUMPDEST PUSH2 0xA7 PUSH1 0x4 DUP1 CALLDATASIZE SUB DUP2 ADD SWAP1 PUSH2 0xA2 SWAP2 SWAP1 PUSH2 0x47D JUMP JUMPDEST PUSH2 0x26A JUMP JUMPDEST STOP JUMPDEST PUSH1 0x0 DUP2 PUSH20 0xFFFFFFFFFFFFFFFFFFFFFFFFFFFFFFFFFFFFFFFF AND PUSH1 0x40 MLOAD PUSH1 0x24 ADD PUSH1 0x40 MLOAD PUSH1 0x20 DUP2 DUP4 SUB SUB DUP2 MSTORE SWAP1 PUSH1 0x40 MSTORE PUSH32 0xE859CF6B00000000000000000000000000000000000000000000000000000000 PUSH28 0xFFFFFFFFFFFFFFFFFFFFFFFFFFFFFFFFFFFFFFFFFFFFFFFFFFFFFFFF NOT AND PUSH1 0x20 DUP3 ADD DUP1 MLOAD PUSH28 0xFFFFFFFFFFFFFFFFFFFFFFFFFFFFFFFFFFFFFFFFFFFFFFFFFFFFFFFF DUP4 DUP2 DUP4 AND OR DUP4 MSTORE POP POP POP POP PUSH1 0x40 MLOAD PUSH2 0x152 SWAP2 SWAP1 PUSH2 0x569 JUMP JUMPDEST PUSH1 0x0 PUSH1 0x40 MLOAD DUP1 DUP4 SUB DUP2 PUSH1 0x0 DUP7 GAS CALL SWAP2 POP POP RETURNDATASIZE DUP1 PUSH1 0x0 DUP2 EQ PUSH2 0x18F JUMPI PUSH1 0x40 MLOAD SWAP2 POP PUSH1 0x1F NOT PUSH1 0x3F RETURNDATASIZE ADD AND DUP3 ADD PUSH1 0x40 MSTORE RETURNDATASIZE DUP3 MSTORE RETURNDATASIZE PUSH1 0x0 PUSH1 0x20 DUP5 ADD RETURNDATACOPY PUSH2 0x194 JUMP JUMPDEST PUSH1 0x60 SWAP2 POP JUMPDEST POP POP SWAP1 POP DUP1 PUSH2 0x1D8 JUMPI PUSH1 0x40 MLOAD PUSH32 0x8C379A000000000000000000000000000000000000000000000000000000000 DUP2 MSTORE PUSH1 0x4 ADD PUSH2 0x1CF SWAP1 PUSH2 0x5D0 JUMP JUMPDEST PUSH1 0x40 MLOAD DUP1 SWAP2 SUB SWAP1 REVERT JUMPDEST POP POP JUMP JUMPDEST PUSH1 0x0 DUP1 SLOAD PUSH2 0x1E9 SWAP1 PUSH2 0x6AC JUMP JUMPDEST DUP1 PUSH1 0x1F ADD PUSH1 0x20 DUP1 SWAP2 DIV MUL PUSH1 0x20 ADD PUSH1 0x40 MLOAD SWAP1 DUP2 ADD PUSH1 0x40 MSTORE DUP1 SWAP3 SWAP2 SWAP1 DUP2 DUP2 MSTORE PUSH1 0x20 ADD DUP3 DUP1 SLOAD PUSH2 0x215 SWAP1 PUSH2 0x6AC JUMP JUMPDEST DUP1 ISZERO PUSH2 0x262 JUMPI DUP1 PUSH1 0x1F LT PUSH2 0x237 JUMPI PUSH2 0x100 DUP1 DUP4 SLOAD DIV MUL DUP4 MSTORE SWAP2 PUSH1 0x20 ADD SWAP2 PUSH2 0x262 JUMP JUMPDEST DUP3 ADD SWAP2 SWAP1 PUSH1 0x0 MSTORE PUSH1 0x20 PUSH1 0x0 KECCAK256 SWAP1 JUMPDEST DUP2 SLOAD DUP2 MSTORE SWAP1 PUSH1 0x1 ADD SWAP1 PUSH1 0x20 ADD DUP1 DUP4 GT PUSH2 0x245 JUMPI DUP3 SWAP1 SUB PUSH1 0x1F AND DUP3 ADD SWAP2 JUMPDEST POP POP POP POP POP DUP2 JUMP JUMPDEST PUSH1 0x0 DUP1 DUP3 PUSH20 0xFFFFFFFFFFFFFFFFFFFFFFFFFFFFFFFFFFFFFFFF AND PUSH1 0x6F PUSH1 0x7B PUSH1 0x40 MLOAD PUSH1 0x24 ADD PUSH2 0x298 SWAP2 SWAP1 PUSH2 0x5A2 JUMP JUMPDEST PUSH1 0x40 MLOAD PUSH1 0x20 DUP2 DUP4 SUB SUB DUP2 MSTORE SWAP1 PUSH1 0x40 MSTORE PUSH32 0x2FAE309D00000000000000000000000000000000000000000000000000000000 PUSH28 0xFFFFFFFFFFFFFFFFFFFFFFFFFFFFFFFFFFFFFFFFFFFFFFFFFFFFFFFF NOT AND PUSH1 0x20 DUP3 ADD DUP1 MLOAD PUSH28 0xFFFFFFFFFFFFFFFFFFFFFFFFFFFFFFFFFFFFFFFFFFFFFFFFFFFFFFFF DUP4 DUP2 DUP4 AND OR DUP4 MSTORE POP POP POP POP PUSH1 0x40 MLOAD PUSH2 0x322 SWAP2 SWAP1 PUSH2 0x569 JUMP JUMPDEST PUSH1 0x0 PUSH1 0x40 MLOAD DUP1 DUP4 SUB DUP2 DUP6 DUP8 GAS CALL SWAP3 POP POP POP RETURNDATASIZE DUP1 PUSH1 0x0 DUP2 EQ PUSH2 0x35F JUMPI PUSH1 0x40 MLOAD SWAP2 POP PUSH1 0x1F NOT PUSH1 0x3F RETURNDATASIZE ADD AND DUP3 ADD PUSH1 0x40 MSTORE RETURNDATASIZE DUP3 MSTORE RETURNDATASIZE PUSH1 0x0 PUSH1 0x20 DUP5 ADD RETURNDATACOPY PUSH2 0x364 JUMP JUMPDEST PUSH1 0x60 SWAP2 POP JUMPDEST POP SWAP2 POP SWAP2 POP DUP2 PUSH2 0x3A9 JUMPI PUSH1 0x40 MLOAD PUSH32 0x8C379A000000000000000000000000000000000000000000000000000000000 DUP2 MSTORE PUSH1 0x4 ADD PUSH2 0x3A0 SWAP1 PUSH2 0x5D0 JUMP JUMPDEST PUSH1 0x40 MLOAD DUP1 SWAP2 SUB SWAP1 REVERT JUMPDEST DUP1 PUSH1 0x0 SWAP1 DUP1 MLOAD SWAP1 PUSH1 0x20 ADD SWAP1 PUSH2 0x3BF SWAP3 SWAP2 SWAP1 PUSH2 0x3C5 JUMP JUMPDEST POP POP POP POP JUMP JUMPDEST DUP3 DUP1 SLOAD PUSH2 0x3D1 SWAP1 PUSH2 0x6AC JUMP JUMPDEST SWAP1 PUSH1 0x0 MSTORE PUSH1 0x20 PUSH1 0x0 KECCAK256 SWAP1 PUSH1 0x1F ADD PUSH1 0x20 SWAP1 DIV DUP2 ADD SWAP3 DUP3 PUSH2 0x3F3 JUMPI PUSH1 0x0 DUP6 SSTORE PUSH2 0x43A JUMP JUMPDEST DUP3 PUSH1 0x1F LT PUSH2 0x40C JUMPI DUP1 MLOAD PUSH1 0xFF NOT AND DUP4 DUP1 ADD OR DUP6 SSTORE PUSH2 0x43A JUMP JUMPDEST DUP3 DUP1 ADD PUSH1 0x1 ADD DUP6 SSTORE DUP3 ISZERO PUSH2 0x43A JUMPI SWAP2 DUP3 ADD JUMPDEST DUP3 DUP2 GT ISZERO PUSH2 0x439 JUMPI DUP3 MLOAD DUP3 SSTORE SWAP2 PUSH1 0x20 ADD SWAP2 SWAP1 PUSH1 0x1 ADD SWAP1 PUSH2 0x41E JUMP JUMPDEST JUMPDEST POP SWAP1 POP PUSH2 0x447 SWAP2 SWAP1 PUSH2 0x44B JUMP JUMPDEST POP SWAP1 JUMP JUMPDEST JUMPDEST DUP1 DUP3 GT ISZERO PUSH2 0x464 JUMPI PUSH1 0x0 DUP2 PUSH1 0x0 SWAP1 SSTORE POP PUSH1 0x1 ADD PUSH2 0x44C JUMP JUMPDEST POP SWAP1 JUMP JUMPDEST PUSH1 0x0 DUP2 CALLDATALOAD SWAP1 POP PUSH2 0x477 DUP2 PUSH2 0x775 JUMP JUMPDEST SWAP3 SWAP2 POP POP JUMP JUMPDEST PUSH1 0x0 PUSH1 0x20 DUP3 DUP5 SUB SLT ISZERO PUSH2 0x493 JUMPI PUSH2 0x492 PUSH2 0x70D JUMP JUMPDEST JUMPDEST PUSH1 0x0 PUSH2 0x4A1 DUP5 DUP3 DUP6 ADD PUSH2 0x468 JUMP JUMPDEST SWAP2 POP POP SWAP3 SWAP2 POP POP JUMP JUMPDEST PUSH1 0x0 PUSH2 0x4B5 DUP3 PUSH2 0x5F0 JUMP JUMPDEST PUSH2 0x4BF DUP2 DUP6 PUSH2 0x5FB JUMP JUMPDEST SWAP4 POP PUSH2 0x4CF DUP2 DUP6 PUSH1 0x20 DUP7 ADD PUSH2 0x679 JUMP JUMPDEST PUSH2 0x4D8 DUP2 PUSH2 0x712 JUMP JUMPDEST DUP5 ADD SWAP2 POP POP SWAP3 SWAP2 POP POP JUMP JUMPDEST PUSH1 0x0 PUSH2 0x4EE DUP3 PUSH2 0x5F0 JUMP JUMPDEST PUSH2 0x4F8 DUP2 DUP6 PUSH2 0x60C JUMP JUMPDEST SWAP4 POP PUSH2 0x508 DUP2 DUP6 PUSH1 0x20 DUP7 ADD PUSH2 0x679 JUMP JUMPDEST DUP1 DUP5 ADD SWAP2 POP POP SWAP3 SWAP2 POP POP JUMP JUMPDEST PUSH2 0x51D DUP2 PUSH2 0x667 JUMP JUMPDEST DUP3 MSTORE POP POP JUMP JUMPDEST PUSH1 0x0 PUSH2 0x530 PUSH1 0x8 DUP4 PUSH2 0x617 JUMP JUMPDEST SWAP2 POP PUSH2 0x53B DUP3 PUSH2 0x723 JUMP JUMPDEST PUSH1 0x20 DUP3 ADD SWAP1 POP SWAP2 SWAP1 POP JUMP JUMPDEST PUSH1 0x0 PUSH2 0x553 PUSH1 0xB DUP4 PUSH2 0x617 JUMP JUMPDEST SWAP2 POP PUSH2 0x55E DUP3 PUSH2 0x74C JUMP JUMPDEST PUSH1 0x20 DUP3 ADD SWAP1 POP SWAP2 SWAP1 POP JUMP JUMPDEST PUSH1 0x0 PUSH2 0x575 DUP3 DUP5 PUSH2 0x4E3 JUMP JUMPDEST SWAP2 POP DUP2 SWAP1 POP SWAP3 SWAP2 POP POP JUMP JUMPDEST PUSH1 0x0 PUSH1 0x20 DUP3 ADD SWAP1 POP DUP2 DUP2 SUB PUSH1 0x0 DUP4 ADD MSTORE PUSH2 0x59A DUP2 DUP5 PUSH2 0x4AA JUMP JUMPDEST SWAP1 POP SWAP3 SWAP2 POP POP JUMP JUMPDEST PUSH1 0x0 PUSH1 0x40 DUP3 ADD SWAP1 POP DUP2 DUP2 SUB PUSH1 0x0 DUP4 ADD MSTORE PUSH2 0x5BB DUP2 PUSH2 0x523 JUMP JUMPDEST SWAP1 POP PUSH2 0x5CA PUSH1 0x20 DUP4 ADD DUP5 PUSH2 0x514 JUMP JUMPDEST SWAP3 SWAP2 POP POP JUMP JUMPDEST PUSH1 0x0 PUSH1 0x20 DUP3 ADD SWAP1 POP DUP2 DUP2 SUB PUSH1 0x0 DUP4 ADD MSTORE PUSH2 0x5E9 DUP2 PUSH2 0x546 JUMP JUMPDEST SWAP1 POP SWAP2 SWAP1 POP JUMP JUMPDEST PUSH1 0x0 DUP2 MLOAD SWAP1 POP SWAP2 SWAP1 POP JUMP JUMPDEST PUSH1 0x0 DUP3 DUP3 MSTORE PUSH1 0x20 DUP3 ADD SWAP1 POP SWAP3 SWAP2 POP POP JUMP JUMPDEST PUSH1 0x0 DUP2 SWAP1 POP SWAP3 SWAP2 POP POP JUMP JUMPDEST PUSH1 0x0 DUP3 DUP3 MSTORE PUSH1 0x20 DUP3 ADD SWAP1 POP SWAP3 SWAP2 POP POP JUMP JUMPDEST PUSH1 0x0 PUSH2 0x633 DUP3 PUSH2 0x63A JUMP JUMPDEST SWAP1 POP SWAP2 SWAP1 POP JUMP JUMPDEST PUSH1 0x0 PUSH20 0xFFFFFFFFFFFFFFFFFFFFFFFFFFFFFFFFFFFFFFFF DUP3 AND SWAP1 POP SWAP2 SWAP1 POP JUMP JUMPDEST PUSH1 0x0 PUSH1 0xFF DUP3 AND SWAP1 POP SWAP2 SWAP1 POP JUMP JUMPDEST PUSH1 0x0 PUSH2 0x672 DUP3 PUSH2 0x65A JUMP JUMPDEST SWAP1 POP SWAP2 SWAP1 POP JUMP JUMPDEST PUSH1 0x0 JUMPDEST DUP4 DUP2 LT ISZERO PUSH2 0x697 JUMPI DUP1 DUP3 ADD MLOAD DUP2 DUP5 ADD MSTORE PUSH1 0x20 DUP2 ADD SWAP1 POP PUSH2 0x67C JUMP JUMPDEST DUP4 DUP2 GT ISZERO PUSH2 0x6A6 JUMPI PUSH1 0x0 DUP5 DUP5 ADD MSTORE JUMPDEST POP POP POP POP JUMP JUMPDEST PUSH1 0x0 PUSH1 0x2 DUP3 DIV SWAP1 POP PUSH1 0x1 DUP3 AND DUP1 PUSH2 0x6C4 JUMPI PUSH1 0x7F DUP3 AND SWAP2 POP JUMPDEST PUSH1 0x20 DUP3 LT DUP2 EQ ISZERO PUSH2 0x6D8 JUMPI PUSH2 0x6D7 PUSH2 0x6DE JUMP JUMPDEST JUMPDEST POP SWAP2 SWAP1 POP JUMP JUMPDEST PUSH32 0x4E487B7100000000000000000000000000000000000000000000000000000000 PUSH1 0x0 MSTORE PUSH1 0x22 PUSH1 0x4 MSTORE PUSH1 0x24 PUSH1 0x0 REVERT JUMPDEST PUSH1 0x0 DUP1 REVERT JUMPDEST PUSH1 0x0 PUSH1 0x1F NOT PUSH1 0x1F DUP4 ADD AND SWAP1 POP SWAP2 SWAP1 POP JUMP JUMPDEST PUSH32 0x63616C6C20666F6F000000000000000000000000000000000000000000000000 PUSH1 0x0 DUP3 ADD MSTORE POP JUMP JUMPDEST PUSH32 0x63616C6C206661696C6564000000000000000000000000000000000000000000 PUSH1 0x0 DUP3 ADD MSTORE POP JUMP JUMPDEST PUSH2 0x77E DUP2 PUSH2 0x628 JUMP JUMPDEST DUP2 EQ PUSH2 0x789 JUMPI PUSH1 0x0 DUP1 REVERT JUMPDEST POP JUMP INVALID LOG2 PUSH5 0x6970667358 0x22 SLT KECCAK256 LOG2 PUSH25 0x187FF339137BA3A12DDA825D7DEB9D4647823453DF6E281F5C 0xBA DUP11 0x49 GASLIMIT TIMESTAMP PUSH5 0x736F6C6343 STOP ADDMOD SMOD STOP CALLER "
				},
				"gasEstimates": {
					"creation": {
						"codeDepositCost": "397200",
						"executionCost": "436",
						"totalCost": "397636"
					},
					"external": {
						"CalldoesNotExist(address)": "infinite",
						"callFoo(address)": "infinite",
						"data()": "infinite"
					}
				},
				"methodIdentifiers": {
					"CalldoesNotExist(address)": "6d7a7118",
					"callFoo(address)": "edcbe76c",
					"data()": "73d4a13a"
				}
			},
			"storageLayout": {
				"storage": [
					{
						"astId": 44,
						"contract": "Object Oriented Concepts/Call.sol:Call",
						"label": "data",
						"offset": 0,
						"slot": "0",
						"type": "t_bytes_storage"
					}
				],
				"types": {
					"t_bytes_storage": {
						"encoding": "bytes",
						"label": "bytes",
						"numberOfBytes": "32"
					}
				}
			},
			"userdoc": {
				"kind": "user",
				"methods": {},
				"version": 1
			}
		}
	}
}