{
	"Object Oriented Concepts/Send ETH.sol": {
		"SendEther": {
			"abi": [
				{
					"inputs": [],
					"stateMutability": "payable",
					"type": "constructor"
				},
				{
					"inputs": [
						{
							"internalType": "address payable",
							"name": "_to",
							"type": "address"
						}
					],
					"name": "sendViaCall",
					"outputs": [],
					"stateMutability": "payable",
					"type": "function"
				},
				{
					"inputs": [
						{
							"internalType": "address payable",
							"name": "_to",
							"type": "address"
						}
					],
					"name": "sendViaSend",
					"outputs": [],
					"stateMutability": "payable",
					"type": "function"
				},
				{
					"inputs": [
						{
							"internalType": "address payable",
							"name": "_to",
							"type": "address"
						}
					],
					"name": "sendViaTransfer",
					"outputs": [],
					"stateMutability": "payable",
					"type": "function"
				},
				{
					"stateMutability": "payable",
					"type": "receive"
				}
			],
			"devdoc": {
				"kind": "dev",
				"methods": {},
				"version": 1
			},
			"evm": {
				"assembly": "    /* \"Object Oriented Concepts/Send ETH.sol\":1288:1826  contract SendEther {\r... */\n  mstore(0x40, 0x80)\n  dataSize(sub_0)\n  dup1\n  dataOffset(sub_0)\n  0x00\n  codecopy\n  0x00\n  return\nstop\n\nsub_0: assembly {\n        /* \"Object Oriented Concepts/Send ETH.sol\":1288:1826  contract SendEther {\r... */\n      mstore(0x40, 0x80)\n      jumpi(tag_1, lt(calldatasize, 0x04))\n      shr(0xe0, calldataload(0x00))\n      dup1\n      0x636e082b\n      eq\n      tag_3\n      jumpi\n      dup1\n      0x74be4806\n      eq\n      tag_4\n      jumpi\n      dup1\n      0x830c29ae\n      eq\n      tag_5\n      jumpi\n      jump(tag_2)\n    tag_1:\n      jumpi(tag_2, calldatasize)\n      stop\n    tag_2:\n      0x00\n      dup1\n      revert\n        /* \"Object Oriented Concepts/Send ETH.sol\":1383:1483  function sendViaTransfer (address payable _to) external payable {\r... */\n    tag_3:\n      tag_8\n      0x04\n      dup1\n      calldatasize\n      sub\n      dup2\n      add\n      swap1\n      tag_9\n      swap2\n      swap1\n      tag_10\n      jump\t// in\n    tag_9:\n      tag_11\n      jump\t// in\n    tag_8:\n      stop\n        /* \"Object Oriented Concepts/Send ETH.sol\":1491:1640  function sendViaSend(address payable _to) external payable {\r... */\n    tag_4:\n      tag_12\n      0x04\n      dup1\n      calldatasize\n      sub\n      dup2\n      add\n      swap1\n      tag_13\n      swap2\n      swap1\n      tag_10\n      jump\t// in\n    tag_13:\n      tag_14\n      jump\t// in\n    tag_12:\n      stop\n        /* \"Object Oriented Concepts/Send ETH.sol\":1648:1823  function sendViaCall(address payable _to) external payable {\r... */\n    tag_5:\n      tag_15\n      0x04\n      dup1\n      calldatasize\n      sub\n      dup2\n      add\n      swap1\n      tag_16\n      swap2\n      swap1\n      tag_10\n      jump\t// in\n    tag_16:\n      tag_17\n      jump\t// in\n    tag_15:\n      stop\n        /* \"Object Oriented Concepts/Send ETH.sol\":1383:1483  function sendViaTransfer (address payable _to) external payable {\r... */\n    tag_11:\n        /* \"Object Oriented Concepts/Send ETH.sol\":1458:1461  _to */\n      dup1\n        /* \"Object Oriented Concepts/Send ETH.sol\":1458:1470  _to.transfer */\n      0xffffffffffffffffffffffffffffffffffffffff\n      and\n        /* \"Object Oriented Concepts/Send ETH.sol\":1458:1475  _to.transfer(123) */\n      0x08fc\n        /* \"Object Oriented Concepts/Send ETH.sol\":1471:1474  123 */\n      0x7b\n        /* \"Object Oriented Concepts/Send ETH.sol\":1458:1475  _to.transfer(123) */\n      swap1\n      dup2\n      iszero\n      mul\n      swap1\n      mload(0x40)\n      0x00\n      mload(0x40)\n      dup1\n      dup4\n      sub\n      dup2\n      dup6\n      dup9\n      dup9\n      call\n      swap4\n      pop\n      pop\n      pop\n      pop\n      iszero\n      dup1\n      iszero\n      tag_20\n      jumpi\n      returndatasize\n      0x00\n      dup1\n      returndatacopy\n      revert(0x00, returndatasize)\n    tag_20:\n      pop\n        /* \"Object Oriented Concepts/Send ETH.sol\":1383:1483  function sendViaTransfer (address payable _to) external payable {\r... */\n      pop\n      jump\t// out\n        /* \"Object Oriented Concepts/Send ETH.sol\":1491:1640  function sendViaSend(address payable _to) external payable {\r... */\n    tag_14:\n        /* \"Object Oriented Concepts/Send ETH.sol\":1561:1570  bool sent */\n      0x00\n        /* \"Object Oriented Concepts/Send ETH.sol\":1573:1576  _to */\n      dup2\n        /* \"Object Oriented Concepts/Send ETH.sol\":1573:1581  _to.send */\n      0xffffffffffffffffffffffffffffffffffffffff\n      and\n        /* \"Object Oriented Concepts/Send ETH.sol\":1573:1586  _to.send(123) */\n      0x08fc\n        /* \"Object Oriented Concepts/Send ETH.sol\":1582:1585  123 */\n      0x7b\n        /* \"Object Oriented Concepts/Send ETH.sol\":1573:1586  _to.send(123) */\n      swap1\n      dup2\n      iszero\n      mul\n      swap1\n      mload(0x40)\n      0x00\n      mload(0x40)\n      dup1\n      dup4\n      sub\n      dup2\n      dup6\n      dup9\n      dup9\n      call\n      swap4\n      pop\n      pop\n      pop\n      pop\n        /* \"Object Oriented Concepts/Send ETH.sol\":1561:1586  bool sent = _to.send(123) */\n      swap1\n      pop\n        /* \"Object Oriented Concepts/Send ETH.sol\":1605:1609  sent */\n      dup1\n        /* \"Object Oriented Concepts/Send ETH.sol\":1597:1632  require(sent, \"transaction failed\") */\n      tag_23\n      jumpi\n      mload(0x40)\n      0x08c379a000000000000000000000000000000000000000000000000000000000\n      dup2\n      mstore\n      0x04\n      add\n      tag_24\n      swap1\n      tag_25\n      jump\t// in\n    tag_24:\n      mload(0x40)\n      dup1\n      swap2\n      sub\n      swap1\n      revert\n    tag_23:\n        /* \"Object Oriented Concepts/Send ETH.sol\":1550:1640  {\r... */\n      pop\n        /* \"Object Oriented Concepts/Send ETH.sol\":1491:1640  function sendViaSend(address payable _to) external payable {\r... */\n      pop\n      jump\t// out\n        /* \"Object Oriented Concepts/Send ETH.sol\":1648:1823  function sendViaCall(address payable _to) external payable {\r... */\n    tag_17:\n        /* \"Object Oriented Concepts/Send ETH.sol\":1719:1731  bool success */\n      0x00\n        /* \"Object Oriented Concepts/Send ETH.sol\":1737:1740  _to */\n      dup2\n        /* \"Object Oriented Concepts/Send ETH.sol\":1737:1745  _to.call */\n      0xffffffffffffffffffffffffffffffffffffffff\n      and\n        /* \"Object Oriented Concepts/Send ETH.sol\":1753:1756  123 */\n      0x7b\n        /* \"Object Oriented Concepts/Send ETH.sol\":1737:1761  _to.call{value: 123}(\"\") */\n      mload(0x40)\n      tag_27\n      swap1\n      tag_28\n      jump\t// in\n    tag_27:\n      0x00\n      mload(0x40)\n      dup1\n      dup4\n      sub\n      dup2\n      dup6\n      dup8\n      gas\n      call\n      swap3\n      pop\n      pop\n      pop\n      returndatasize\n      dup1\n      0x00\n      dup2\n      eq\n      tag_31\n      jumpi\n      mload(0x40)\n      swap2\n      pop\n      and(add(returndatasize, 0x3f), not(0x1f))\n      dup3\n      add\n      0x40\n      mstore\n      returndatasize\n      dup3\n      mstore\n      returndatasize\n      0x00\n      0x20\n      dup5\n      add\n      returndatacopy\n      jump(tag_30)\n    tag_31:\n      0x60\n      swap2\n      pop\n    tag_30:\n      pop\n        /* \"Object Oriented Concepts/Send ETH.sol\":1718:1761  (bool success, ) = _to.call{value: 123}(\"\") */\n      pop\n      swap1\n      pop\n        /* \"Object Oriented Concepts/Send ETH.sol\":1780:1787  success */\n      dup1\n        /* \"Object Oriented Concepts/Send ETH.sol\":1772:1815  require(success, \"call transaction failed\") */\n      tag_32\n      jumpi\n      mload(0x40)\n      0x08c379a000000000000000000000000000000000000000000000000000000000\n      dup2\n      mstore\n      0x04\n      add\n      tag_33\n      swap1\n      tag_34\n      jump\t// in\n    tag_33:\n      mload(0x40)\n      dup1\n      swap2\n      sub\n      swap1\n      revert\n    tag_32:\n        /* \"Object Oriented Concepts/Send ETH.sol\":1707:1823  {\r... */\n      pop\n        /* \"Object Oriented Concepts/Send ETH.sol\":1648:1823  function sendViaCall(address payable _to) external payable {\r... */\n      pop\n      jump\t// out\n        /* \"#utility.yul\":7:162   */\n    tag_36:\n        /* \"#utility.yul\":61:66   */\n      0x00\n        /* \"#utility.yul\":99:105   */\n      dup2\n        /* \"#utility.yul\":86:106   */\n      calldataload\n        /* \"#utility.yul\":77:106   */\n      swap1\n      pop\n        /* \"#utility.yul\":115:156   */\n      tag_38\n        /* \"#utility.yul\":150:155   */\n      dup2\n        /* \"#utility.yul\":115:156   */\n      tag_39\n      jump\t// in\n    tag_38:\n        /* \"#utility.yul\":7:162   */\n      swap3\n      swap2\n      pop\n      pop\n      jump\t// out\n        /* \"#utility.yul\":168:513   */\n    tag_10:\n        /* \"#utility.yul\":235:241   */\n      0x00\n        /* \"#utility.yul\":284:286   */\n      0x20\n        /* \"#utility.yul\":272:281   */\n      dup3\n        /* \"#utility.yul\":263:270   */\n      dup5\n        /* \"#utility.yul\":259:282   */\n      sub\n        /* \"#utility.yul\":255:287   */\n      slt\n        /* \"#utility.yul\":252:371   */\n      iszero\n      tag_41\n      jumpi\n        /* \"#utility.yul\":290:369   */\n      tag_42\n      tag_43\n      jump\t// in\n    tag_42:\n        /* \"#utility.yul\":252:371   */\n    tag_41:\n        /* \"#utility.yul\":410:411   */\n      0x00\n        /* \"#utility.yul\":435:496   */\n      tag_44\n        /* \"#utility.yul\":488:495   */\n      dup5\n        /* \"#utility.yul\":479:485   */\n      dup3\n        /* \"#utility.yul\":468:477   */\n      dup6\n        /* \"#utility.yul\":464:486   */\n      add\n        /* \"#utility.yul\":435:496   */\n      tag_36\n      jump\t// in\n    tag_44:\n        /* \"#utility.yul\":425:496   */\n      swap2\n      pop\n        /* \"#utility.yul\":381:506   */\n      pop\n        /* \"#utility.yul\":168:513   */\n      swap3\n      swap2\n      pop\n      pop\n      jump\t// out\n        /* \"#utility.yul\":519:885   */\n    tag_45:\n        /* \"#utility.yul\":661:664   */\n      0x00\n        /* \"#utility.yul\":682:749   */\n      tag_47\n        /* \"#utility.yul\":746:748   */\n      0x17\n        /* \"#utility.yul\":741:744   */\n      dup4\n        /* \"#utility.yul\":682:749   */\n      tag_48\n      jump\t// in\n    tag_47:\n        /* \"#utility.yul\":675:749   */\n      swap2\n      pop\n        /* \"#utility.yul\":758:851   */\n      tag_49\n        /* \"#utility.yul\":847:850   */\n      dup3\n        /* \"#utility.yul\":758:851   */\n      tag_50\n      jump\t// in\n    tag_49:\n        /* \"#utility.yul\":876:878   */\n      0x20\n        /* \"#utility.yul\":871:874   */\n      dup3\n        /* \"#utility.yul\":867:879   */\n      add\n        /* \"#utility.yul\":860:879   */\n      swap1\n      pop\n        /* \"#utility.yul\":519:885   */\n      swap2\n      swap1\n      pop\n      jump\t// out\n        /* \"#utility.yul\":891:1289   */\n    tag_51:\n        /* \"#utility.yul\":1050:1053   */\n      0x00\n        /* \"#utility.yul\":1071:1154   */\n      tag_53\n        /* \"#utility.yul\":1152:1153   */\n      0x00\n        /* \"#utility.yul\":1147:1150   */\n      dup4\n        /* \"#utility.yul\":1071:1154   */\n      tag_54\n      jump\t// in\n    tag_53:\n        /* \"#utility.yul\":1064:1154   */\n      swap2\n      pop\n        /* \"#utility.yul\":1163:1256   */\n      tag_55\n        /* \"#utility.yul\":1252:1255   */\n      dup3\n        /* \"#utility.yul\":1163:1256   */\n      tag_56\n      jump\t// in\n    tag_55:\n        /* \"#utility.yul\":1281:1282   */\n      0x00\n        /* \"#utility.yul\":1276:1279   */\n      dup3\n        /* \"#utility.yul\":1272:1283   */\n      add\n        /* \"#utility.yul\":1265:1283   */\n      swap1\n      pop\n        /* \"#utility.yul\":891:1289   */\n      swap2\n      swap1\n      pop\n      jump\t// out\n        /* \"#utility.yul\":1295:1661   */\n    tag_57:\n        /* \"#utility.yul\":1437:1440   */\n      0x00\n        /* \"#utility.yul\":1458:1525   */\n      tag_59\n        /* \"#utility.yul\":1522:1524   */\n      0x12\n        /* \"#utility.yul\":1517:1520   */\n      dup4\n        /* \"#utility.yul\":1458:1525   */\n      tag_48\n      jump\t// in\n    tag_59:\n        /* \"#utility.yul\":1451:1525   */\n      swap2\n      pop\n        /* \"#utility.yul\":1534:1627   */\n      tag_60\n        /* \"#utility.yul\":1623:1626   */\n      dup3\n        /* \"#utility.yul\":1534:1627   */\n      tag_61\n      jump\t// in\n    tag_60:\n        /* \"#utility.yul\":1652:1654   */\n      0x20\n        /* \"#utility.yul\":1647:1650   */\n      dup3\n        /* \"#utility.yul\":1643:1655   */\n      add\n        /* \"#utility.yul\":1636:1655   */\n      swap1\n      pop\n        /* \"#utility.yul\":1295:1661   */\n      swap2\n      swap1\n      pop\n      jump\t// out\n        /* \"#utility.yul\":1667:2046   */\n    tag_28:\n        /* \"#utility.yul\":1851:1854   */\n      0x00\n        /* \"#utility.yul\":1873:2020   */\n      tag_63\n        /* \"#utility.yul\":2016:2019   */\n      dup3\n        /* \"#utility.yul\":1873:2020   */\n      tag_51\n      jump\t// in\n    tag_63:\n        /* \"#utility.yul\":1866:2020   */\n      swap2\n      pop\n        /* \"#utility.yul\":2037:2040   */\n      dup2\n        /* \"#utility.yul\":2030:2040   */\n      swap1\n      pop\n        /* \"#utility.yul\":1667:2046   */\n      swap2\n      swap1\n      pop\n      jump\t// out\n        /* \"#utility.yul\":2052:2471   */\n    tag_34:\n        /* \"#utility.yul\":2218:2222   */\n      0x00\n        /* \"#utility.yul\":2256:2258   */\n      0x20\n        /* \"#utility.yul\":2245:2254   */\n      dup3\n        /* \"#utility.yul\":2241:2259   */\n      add\n        /* \"#utility.yul\":2233:2259   */\n      swap1\n      pop\n        /* \"#utility.yul\":2305:2314   */\n      dup2\n        /* \"#utility.yul\":2299:2303   */\n      dup2\n        /* \"#utility.yul\":2295:2315   */\n      sub\n        /* \"#utility.yul\":2291:2292   */\n      0x00\n        /* \"#utility.yul\":2280:2289   */\n      dup4\n        /* \"#utility.yul\":2276:2293   */\n      add\n        /* \"#utility.yul\":2269:2316   */\n      mstore\n        /* \"#utility.yul\":2333:2464   */\n      tag_65\n        /* \"#utility.yul\":2459:2463   */\n      dup2\n        /* \"#utility.yul\":2333:2464   */\n      tag_45\n      jump\t// in\n    tag_65:\n        /* \"#utility.yul\":2325:2464   */\n      swap1\n      pop\n        /* \"#utility.yul\":2052:2471   */\n      swap2\n      swap1\n      pop\n      jump\t// out\n        /* \"#utility.yul\":2477:2896   */\n    tag_25:\n        /* \"#utility.yul\":2643:2647   */\n      0x00\n        /* \"#utility.yul\":2681:2683   */\n      0x20\n        /* \"#utility.yul\":2670:2679   */\n      dup3\n        /* \"#utility.yul\":2666:2684   */\n      add\n        /* \"#utility.yul\":2658:2684   */\n      swap1\n      pop\n        /* \"#utility.yul\":2730:2739   */\n      dup2\n        /* \"#utility.yul\":2724:2728   */\n      dup2\n        /* \"#utility.yul\":2720:2740   */\n      sub\n        /* \"#utility.yul\":2716:2717   */\n      0x00\n        /* \"#utility.yul\":2705:2714   */\n      dup4\n        /* \"#utility.yul\":2701:2718   */\n      add\n        /* \"#utility.yul\":2694:2741   */\n      mstore\n        /* \"#utility.yul\":2758:2889   */\n      tag_67\n        /* \"#utility.yul\":2884:2888   */\n      dup2\n        /* \"#utility.yul\":2758:2889   */\n      tag_57\n      jump\t// in\n    tag_67:\n        /* \"#utility.yul\":2750:2889   */\n      swap1\n      pop\n        /* \"#utility.yul\":2477:2896   */\n      swap2\n      swap1\n      pop\n      jump\t// out\n        /* \"#utility.yul\":2983:3130   */\n    tag_54:\n        /* \"#utility.yul\":3084:3095   */\n      0x00\n        /* \"#utility.yul\":3121:3124   */\n      dup2\n        /* \"#utility.yul\":3106:3124   */\n      swap1\n      pop\n        /* \"#utility.yul\":2983:3130   */\n      swap3\n      swap2\n      pop\n      pop\n      jump\t// out\n        /* \"#utility.yul\":3136:3305   */\n    tag_48:\n        /* \"#utility.yul\":3220:3231   */\n      0x00\n        /* \"#utility.yul\":3254:3260   */\n      dup3\n        /* \"#utility.yul\":3249:3252   */\n      dup3\n        /* \"#utility.yul\":3242:3261   */\n      mstore\n        /* \"#utility.yul\":3294:3298   */\n      0x20\n        /* \"#utility.yul\":3289:3292   */\n      dup3\n        /* \"#utility.yul\":3285:3299   */\n      add\n        /* \"#utility.yul\":3270:3299   */\n      swap1\n      pop\n        /* \"#utility.yul\":3136:3305   */\n      swap3\n      swap2\n      pop\n      pop\n      jump\t// out\n        /* \"#utility.yul\":3311:3415   */\n    tag_72:\n        /* \"#utility.yul\":3356:3363   */\n      0x00\n        /* \"#utility.yul\":3385:3409   */\n      tag_74\n        /* \"#utility.yul\":3403:3408   */\n      dup3\n        /* \"#utility.yul\":3385:3409   */\n      tag_75\n      jump\t// in\n    tag_74:\n        /* \"#utility.yul\":3374:3409   */\n      swap1\n      pop\n        /* \"#utility.yul\":3311:3415   */\n      swap2\n      swap1\n      pop\n      jump\t// out\n        /* \"#utility.yul\":3421:3547   */\n    tag_75:\n        /* \"#utility.yul\":3458:3465   */\n      0x00\n        /* \"#utility.yul\":3498:3540   */\n      0xffffffffffffffffffffffffffffffffffffffff\n        /* \"#utility.yul\":3491:3496   */\n      dup3\n        /* \"#utility.yul\":3487:3541   */\n      and\n        /* \"#utility.yul\":3476:3541   */\n      swap1\n      pop\n        /* \"#utility.yul\":3421:3547   */\n      swap2\n      swap1\n      pop\n      jump\t// out\n        /* \"#utility.yul\":3676:3793   */\n    tag_43:\n        /* \"#utility.yul\":3785:3786   */\n      0x00\n        /* \"#utility.yul\":3782:3783   */\n      dup1\n        /* \"#utility.yul\":3775:3787   */\n      revert\n        /* \"#utility.yul\":3799:3972   */\n    tag_50:\n        /* \"#utility.yul\":3939:3964   */\n      0x63616c6c207472616e73616374696f6e206661696c6564000000000000000000\n        /* \"#utility.yul\":3935:3936   */\n      0x00\n        /* \"#utility.yul\":3927:3933   */\n      dup3\n        /* \"#utility.yul\":3923:3937   */\n      add\n        /* \"#utility.yul\":3916:3965   */\n      mstore\n        /* \"#utility.yul\":3799:3972   */\n      pop\n      jump\t// out\n        /* \"#utility.yul\":3978:4092   */\n    tag_56:\n      pop\n      jump\t// out\n        /* \"#utility.yul\":4098:4266   */\n    tag_61:\n        /* \"#utility.yul\":4238:4258   */\n      0x7472616e73616374696f6e206661696c65640000000000000000000000000000\n        /* \"#utility.yul\":4234:4235   */\n      0x00\n        /* \"#utility.yul\":4226:4232   */\n      dup3\n        /* \"#utility.yul\":4222:4236   */\n      add\n        /* \"#utility.yul\":4215:4259   */\n      mstore\n        /* \"#utility.yul\":4098:4266   */\n      pop\n      jump\t// out\n        /* \"#utility.yul\":4272:4410   */\n    tag_39:\n        /* \"#utility.yul\":4353:4385   */\n      tag_84\n        /* \"#utility.yul\":4379:4384   */\n      dup2\n        /* \"#utility.yul\":4353:4385   */\n      tag_72\n      jump\t// in\n    tag_84:\n        /* \"#utility.yul\":4346:4351   */\n      dup2\n        /* \"#utility.yul\":4343:4386   */\n      eq\n        /* \"#utility.yul\":4333:4404   */\n      tag_85\n      jumpi\n        /* \"#utility.yul\":4400:4401   */\n      0x00\n        /* \"#utility.yul\":4397:4398   */\n      dup1\n        /* \"#utility.yul\":4390:4402   */\n      revert\n        /* \"#utility.yul\":4333:4404   */\n    tag_85:\n        /* \"#utility.yul\":4272:4410   */\n      pop\n      jump\t// out\n\n    auxdata: 0xa2646970667358221220a9f4700f50cd5967591b3c085e6e761f8ef97c33cd144884f538039ec976270064736f6c63430008070033\n}\n",
				"bytecode": {
					"linkReferences": {},
					"object": "6080604052610407806100136000396000f3fe6080604052600436106100385760003560e01c8063636e082b1461004457806374be480614610060578063830c29ae1461007c5761003f565b3661003f57005b600080fd5b61005e60048036038101906100599190610227565b610098565b005b61007a60048036038101906100759190610227565b6100e3565b005b61009660048036038101906100919190610227565b610161565b005b8073ffffffffffffffffffffffffffffffffffffffff166108fc607b9081150290604051600060405180830381858888f193505050501580156100df573d6000803e3d6000fd5b5050565b60008173ffffffffffffffffffffffffffffffffffffffff166108fc607b9081150290604051600060405180830381858888f1935050505090508061015d576040517f08c379a0000000000000000000000000000000000000000000000000000000008152600401610154906102f2565b60405180910390fd5b5050565b60008173ffffffffffffffffffffffffffffffffffffffff16607b604051610188906102bd565b60006040518083038185875af1925050503d80600081146101c5576040519150601f19603f3d011682016040523d82523d6000602084013e6101ca565b606091505b505090508061020e576040517f08c379a0000000000000000000000000000000000000000000000000000000008152600401610205906102d2565b60405180910390fd5b5050565b600081359050610221816103ba565b92915050565b60006020828403121561023d5761023c610360565b5b600061024b84828501610212565b91505092915050565b600061026160178361031d565b915061026c82610365565b602082019050919050565b6000610284600083610312565b915061028f8261038e565b600082019050919050565b60006102a760128361031d565b91506102b282610391565b602082019050919050565b60006102c882610277565b9150819050919050565b600060208201905081810360008301526102eb81610254565b9050919050565b6000602082019050818103600083015261030b8161029a565b9050919050565b600081905092915050565b600082825260208201905092915050565b600061033982610340565b9050919050565b600073ffffffffffffffffffffffffffffffffffffffff82169050919050565b600080fd5b7f63616c6c207472616e73616374696f6e206661696c6564000000000000000000600082015250565b50565b7f7472616e73616374696f6e206661696c65640000000000000000000000000000600082015250565b6103c38161032e565b81146103ce57600080fd5b5056fea2646970667358221220a9f4700f50cd5967591b3c085e6e761f8ef97c33cd144884f538039ec976270064736f6c63430008070033",
					"opcodes": "PUSH1 0x80 PUSH1 0x40 MSTORE PUSH2 0x407 DUP1 PUSH2 0x13 PUSH1 0x0 CODECOPY PUSH1 0x0 RETURN INVALID PUSH1 0x80 PUSH1 0x40 MSTORE PUSH1 0x4 CALLDATASIZE LT PUSH2 0x38 JUMPI PUSH1 0x0 CALLDATALOAD PUSH1 0xE0 SHR DUP1 PUSH4 0x636E082B EQ PUSH2 0x44 JUMPI DUP1 PUSH4 0x74BE4806 EQ PUSH2 0x60 JUMPI DUP1 PUSH4 0x830C29AE EQ PUSH2 0x7C JUMPI PUSH2 0x3F JUMP JUMPDEST CALLDATASIZE PUSH2 0x3F JUMPI STOP JUMPDEST PUSH1 0x0 DUP1 REVERT JUMPDEST PUSH2 0x5E PUSH1 0x4 DUP1 CALLDATASIZE SUB DUP2 ADD SWAP1 PUSH2 0x59 SWAP2 SWAP1 PUSH2 0x227 JUMP JUMPDEST PUSH2 0x98 JUMP JUMPDEST STOP JUMPDEST PUSH2 0x7A PUSH1 0x4 DUP1 CALLDATASIZE SUB DUP2 ADD SWAP1 PUSH2 0x75 SWAP2 SWAP1 PUSH2 0x227 JUMP JUMPDEST PUSH2 0xE3 JUMP JUMPDEST STOP JUMPDEST PUSH2 0x96 PUSH1 0x4 DUP1 CALLDATASIZE SUB DUP2 ADD SWAP1 PUSH2 0x91 SWAP2 SWAP1 PUSH2 0x227 JUMP JUMPDEST PUSH2 0x161 JUMP JUMPDEST STOP JUMPDEST DUP1 PUSH20 0xFFFFFFFFFFFFFFFFFFFFFFFFFFFFFFFFFFFFFFFF AND PUSH2 0x8FC PUSH1 0x7B SWAP1 DUP2 ISZERO MUL SWAP1 PUSH1 0x40 MLOAD PUSH1 0x0 PUSH1 0x40 MLOAD DUP1 DUP4 SUB DUP2 DUP6 DUP9 DUP9 CALL SWAP4 POP POP POP POP ISZERO DUP1 ISZERO PUSH2 0xDF JUMPI RETURNDATASIZE PUSH1 0x0 DUP1 RETURNDATACOPY RETURNDATASIZE PUSH1 0x0 REVERT JUMPDEST POP POP JUMP JUMPDEST PUSH1 0x0 DUP2 PUSH20 0xFFFFFFFFFFFFFFFFFFFFFFFFFFFFFFFFFFFFFFFF AND PUSH2 0x8FC PUSH1 0x7B SWAP1 DUP2 ISZERO MUL SWAP1 PUSH1 0x40 MLOAD PUSH1 0x0 PUSH1 0x40 MLOAD DUP1 DUP4 SUB DUP2 DUP6 DUP9 DUP9 CALL SWAP4 POP POP POP POP SWAP1 POP DUP1 PUSH2 0x15D JUMPI PUSH1 0x40 MLOAD PUSH32 0x8C379A000000000000000000000000000000000000000000000000000000000 DUP2 MSTORE PUSH1 0x4 ADD PUSH2 0x154 SWAP1 PUSH2 0x2F2 JUMP JUMPDEST PUSH1 0x40 MLOAD DUP1 SWAP2 SUB SWAP1 REVERT JUMPDEST POP POP JUMP JUMPDEST PUSH1 0x0 DUP2 PUSH20 0xFFFFFFFFFFFFFFFFFFFFFFFFFFFFFFFFFFFFFFFF AND PUSH1 0x7B PUSH1 0x40 MLOAD PUSH2 0x188 SWAP1 PUSH2 0x2BD JUMP JUMPDEST PUSH1 0x0 PUSH1 0x40 MLOAD DUP1 DUP4 SUB DUP2 DUP6 DUP8 GAS CALL SWAP3 POP POP POP RETURNDATASIZE DUP1 PUSH1 0x0 DUP2 EQ PUSH2 0x1C5 JUMPI PUSH1 0x40 MLOAD SWAP2 POP PUSH1 0x1F NOT PUSH1 0x3F RETURNDATASIZE ADD AND DUP3 ADD PUSH1 0x40 MSTORE RETURNDATASIZE DUP3 MSTORE RETURNDATASIZE PUSH1 0x0 PUSH1 0x20 DUP5 ADD RETURNDATACOPY PUSH2 0x1CA JUMP JUMPDEST PUSH1 0x60 SWAP2 POP JUMPDEST POP POP SWAP1 POP DUP1 PUSH2 0x20E JUMPI PUSH1 0x40 MLOAD PUSH32 0x8C379A000000000000000000000000000000000000000000000000000000000 DUP2 MSTORE PUSH1 0x4 ADD PUSH2 0x205 SWAP1 PUSH2 0x2D2 JUMP JUMPDEST PUSH1 0x40 MLOAD DUP1 SWAP2 SUB SWAP1 REVERT JUMPDEST POP POP JUMP JUMPDEST PUSH1 0x0 DUP2 CALLDATALOAD SWAP1 POP PUSH2 0x221 DUP2 PUSH2 0x3BA JUMP JUMPDEST SWAP3 SWAP2 POP POP JUMP JUMPDEST PUSH1 0x0 PUSH1 0x20 DUP3 DUP5 SUB SLT ISZERO PUSH2 0x23D JUMPI PUSH2 0x23C PUSH2 0x360 JUMP JUMPDEST JUMPDEST PUSH1 0x0 PUSH2 0x24B DUP5 DUP3 DUP6 ADD PUSH2 0x212 JUMP JUMPDEST SWAP2 POP POP SWAP3 SWAP2 POP POP JUMP JUMPDEST PUSH1 0x0 PUSH2 0x261 PUSH1 0x17 DUP4 PUSH2 0x31D JUMP JUMPDEST SWAP2 POP PUSH2 0x26C DUP3 PUSH2 0x365 JUMP JUMPDEST PUSH1 0x20 DUP3 ADD SWAP1 POP SWAP2 SWAP1 POP JUMP JUMPDEST PUSH1 0x0 PUSH2 0x284 PUSH1 0x0 DUP4 PUSH2 0x312 JUMP JUMPDEST SWAP2 POP PUSH2 0x28F DUP3 PUSH2 0x38E JUMP JUMPDEST PUSH1 0x0 DUP3 ADD SWAP1 POP SWAP2 SWAP1 POP JUMP JUMPDEST PUSH1 0x0 PUSH2 0x2A7 PUSH1 0x12 DUP4 PUSH2 0x31D JUMP JUMPDEST SWAP2 POP PUSH2 0x2B2 DUP3 PUSH2 0x391 JUMP JUMPDEST PUSH1 0x20 DUP3 ADD SWAP1 POP SWAP2 SWAP1 POP JUMP JUMPDEST PUSH1 0x0 PUSH2 0x2C8 DUP3 PUSH2 0x277 JUMP JUMPDEST SWAP2 POP DUP2 SWAP1 POP SWAP2 SWAP1 POP JUMP JUMPDEST PUSH1 0x0 PUSH1 0x20 DUP3 ADD SWAP1 POP DUP2 DUP2 SUB PUSH1 0x0 DUP4 ADD MSTORE PUSH2 0x2EB DUP2 PUSH2 0x254 JUMP JUMPDEST SWAP1 POP SWAP2 SWAP1 POP JUMP JUMPDEST PUSH1 0x0 PUSH1 0x20 DUP3 ADD SWAP1 POP DUP2 DUP2 SUB PUSH1 0x0 DUP4 ADD MSTORE PUSH2 0x30B DUP2 PUSH2 0x29A JUMP JUMPDEST SWAP1 POP SWAP2 SWAP1 POP JUMP JUMPDEST PUSH1 0x0 DUP2 SWAP1 POP SWAP3 SWAP2 POP POP JUMP JUMPDEST PUSH1 0x0 DUP3 DUP3 MSTORE PUSH1 0x20 DUP3 ADD SWAP1 POP SWAP3 SWAP2 POP POP JUMP JUMPDEST PUSH1 0x0 PUSH2 0x339 DUP3 PUSH2 0x340 JUMP JUMPDEST SWAP1 POP SWAP2 SWAP1 POP JUMP JUMPDEST PUSH1 0x0 PUSH20 0xFFFFFFFFFFFFFFFFFFFFFFFFFFFFFFFFFFFFFFFF DUP3 AND SWAP1 POP SWAP2 SWAP1 POP JUMP JUMPDEST PUSH1 0x0 DUP1 REVERT JUMPDEST PUSH32 0x63616C6C207472616E73616374696F6E206661696C6564000000000000000000 PUSH1 0x0 DUP3 ADD MSTORE POP JUMP JUMPDEST POP JUMP JUMPDEST PUSH32 0x7472616E73616374696F6E206661696C65640000000000000000000000000000 PUSH1 0x0 DUP3 ADD MSTORE POP JUMP JUMPDEST PUSH2 0x3C3 DUP2 PUSH2 0x32E JUMP JUMPDEST DUP2 EQ PUSH2 0x3CE JUMPI PUSH1 0x0 DUP1 REVERT JUMPDEST POP JUMP INVALID LOG2 PUSH5 0x6970667358 0x22 SLT KECCAK256 0xA9 DELEGATECALL PUSH17 0xF50CD5967591B3C085E6E761F8EF97C33 0xCD EQ BASEFEE DUP5 CREATE2 CODESIZE SUB SWAP15 0xC9 PUSH23 0x270064736F6C6343000807003300000000000000000000 "
				},
				"gasEstimates": {
					"creation": {
						"codeDepositCost": "206200",
						"executionCost": "227",
						"totalCost": "206427"
					},
					"external": {
						"sendViaCall(address)": "infinite",
						"sendViaSend(address)": "infinite",
						"sendViaTransfer(address)": "infinite"
					}
				},
				"methodIdentifiers": {
					"sendViaCall(address)": "830c29ae",
					"sendViaSend(address)": "74be4806",
					"sendViaTransfer(address)": "636e082b"
				}
			},
			"storageLayout": {
				"storage": [],
				"types": null
			},
			"userdoc": {
				"kind": "user",
				"methods": {},
				"version": 1
			}
		}
	}
}